{
  "contractName": "SupplyChain",
  "abi": [
    {
      "inputs": [],
      "stateMutability": "payable",
      "type": "constructor",
      "payable": true
    },
    {
      "anonymous": false,
      "inputs": [
        {
          "indexed": true,
          "internalType": "address",
          "name": "account",
          "type": "address"
        }
      ],
      "name": "ConsumerAdded",
      "type": "event"
    },
    {
      "anonymous": false,
      "inputs": [
        {
          "indexed": true,
          "internalType": "address",
          "name": "account",
          "type": "address"
        }
      ],
      "name": "ConsumerRemoved",
      "type": "event"
    },
    {
      "anonymous": false,
      "inputs": [
        {
          "indexed": true,
          "internalType": "address",
          "name": "account",
          "type": "address"
        }
      ],
      "name": "DistributorAdded",
      "type": "event"
    },
    {
      "anonymous": false,
      "inputs": [
        {
          "indexed": true,
          "internalType": "address",
          "name": "account",
          "type": "address"
        }
      ],
      "name": "DistributorRemoved",
      "type": "event"
    },
    {
      "anonymous": false,
      "inputs": [
        {
          "indexed": true,
          "internalType": "address",
          "name": "account",
          "type": "address"
        }
      ],
      "name": "FarmerAdded",
      "type": "event"
    },
    {
      "anonymous": false,
      "inputs": [
        {
          "indexed": true,
          "internalType": "address",
          "name": "account",
          "type": "address"
        }
      ],
      "name": "FarmerRemoved",
      "type": "event"
    },
    {
      "anonymous": false,
      "inputs": [
        {
          "indexed": false,
          "internalType": "uint256",
          "name": "upc",
          "type": "uint256"
        }
      ],
      "name": "ForSale",
      "type": "event"
    },
    {
      "anonymous": false,
      "inputs": [
        {
          "indexed": false,
          "internalType": "uint256",
          "name": "upc",
          "type": "uint256"
        }
      ],
      "name": "Harvested",
      "type": "event"
    },
    {
      "anonymous": false,
      "inputs": [
        {
          "indexed": false,
          "internalType": "uint256",
          "name": "upc",
          "type": "uint256"
        }
      ],
      "name": "Packed",
      "type": "event"
    },
    {
      "anonymous": false,
      "inputs": [
        {
          "indexed": false,
          "internalType": "uint256",
          "name": "upc",
          "type": "uint256"
        }
      ],
      "name": "Processed",
      "type": "event"
    },
    {
      "anonymous": false,
      "inputs": [
        {
          "indexed": false,
          "internalType": "uint256",
          "name": "upc",
          "type": "uint256"
        }
      ],
      "name": "Purchased",
      "type": "event"
    },
    {
      "anonymous": false,
      "inputs": [
        {
          "indexed": false,
          "internalType": "uint256",
          "name": "upc",
          "type": "uint256"
        }
      ],
      "name": "Received",
      "type": "event"
    },
    {
      "anonymous": false,
      "inputs": [
        {
          "indexed": true,
          "internalType": "address",
          "name": "account",
          "type": "address"
        }
      ],
      "name": "RetailerAdded",
      "type": "event"
    },
    {
      "anonymous": false,
      "inputs": [
        {
          "indexed": true,
          "internalType": "address",
          "name": "account",
          "type": "address"
        }
      ],
      "name": "RetailerRemoved",
      "type": "event"
    },
    {
      "anonymous": false,
      "inputs": [
        {
          "indexed": false,
          "internalType": "uint256",
          "name": "upc",
          "type": "uint256"
        }
      ],
      "name": "Shipped",
      "type": "event"
    },
    {
      "anonymous": false,
      "inputs": [
        {
          "indexed": false,
          "internalType": "uint256",
          "name": "upc",
          "type": "uint256"
        }
      ],
      "name": "Sold",
      "type": "event"
    },
    {
      "anonymous": false,
      "inputs": [
        {
          "indexed": true,
          "internalType": "address",
          "name": "oldOwner",
          "type": "address"
        },
        {
          "indexed": true,
          "internalType": "address",
          "name": "newOwner",
          "type": "address"
        }
      ],
      "name": "TransferOwnership",
      "type": "event"
    },
    {
      "inputs": [
        {
          "internalType": "address",
          "name": "account",
          "type": "address"
        }
      ],
      "name": "addConsumer",
      "outputs": [],
      "stateMutability": "nonpayable",
      "type": "function"
    },
    {
      "inputs": [
        {
          "internalType": "address",
          "name": "account",
          "type": "address"
        }
      ],
      "name": "addDistributor",
      "outputs": [],
      "stateMutability": "nonpayable",
      "type": "function"
    },
    {
      "inputs": [
        {
          "internalType": "address",
          "name": "account",
          "type": "address"
        }
      ],
      "name": "addFarmer",
      "outputs": [],
      "stateMutability": "nonpayable",
      "type": "function"
    },
    {
      "inputs": [
        {
          "internalType": "address",
          "name": "account",
          "type": "address"
        }
      ],
      "name": "addRetailer",
      "outputs": [],
      "stateMutability": "nonpayable",
      "type": "function"
    },
    {
      "inputs": [],
      "name": "contractOwner",
      "outputs": [
        {
          "internalType": "address",
          "name": "",
          "type": "address"
        }
      ],
      "stateMutability": "view",
      "type": "function",
      "constant": true
    },
    {
      "inputs": [
        {
          "internalType": "address",
          "name": "account",
          "type": "address"
        }
      ],
      "name": "isConsumer",
      "outputs": [
        {
          "internalType": "bool",
          "name": "",
          "type": "bool"
        }
      ],
      "stateMutability": "view",
      "type": "function",
      "constant": true
    },
    {
      "inputs": [
        {
          "internalType": "address",
          "name": "account",
          "type": "address"
        }
      ],
      "name": "isDistributor",
      "outputs": [
        {
          "internalType": "bool",
          "name": "",
          "type": "bool"
        }
      ],
      "stateMutability": "view",
      "type": "function",
      "constant": true
    },
    {
      "inputs": [
        {
          "internalType": "address",
          "name": "account",
          "type": "address"
        }
      ],
      "name": "isFarmer",
      "outputs": [
        {
          "internalType": "bool",
          "name": "",
          "type": "bool"
        }
      ],
      "stateMutability": "view",
      "type": "function",
      "constant": true
    },
    {
      "inputs": [],
      "name": "isOwner",
      "outputs": [
        {
          "internalType": "bool",
          "name": "",
          "type": "bool"
        }
      ],
      "stateMutability": "view",
      "type": "function",
      "constant": true
    },
    {
      "inputs": [
        {
          "internalType": "address",
          "name": "account",
          "type": "address"
        }
      ],
      "name": "isRetailer",
      "outputs": [
        {
          "internalType": "bool",
          "name": "",
          "type": "bool"
        }
      ],
      "stateMutability": "view",
      "type": "function",
      "constant": true
    },
    {
      "inputs": [],
      "name": "renounceConsumer",
      "outputs": [],
      "stateMutability": "nonpayable",
      "type": "function"
    },
    {
      "inputs": [],
      "name": "renounceDistributor",
      "outputs": [],
      "stateMutability": "nonpayable",
      "type": "function"
    },
    {
      "inputs": [],
      "name": "renounceFarmer",
      "outputs": [],
      "stateMutability": "nonpayable",
      "type": "function"
    },
    {
      "inputs": [],
      "name": "renounceOwnership",
      "outputs": [],
      "stateMutability": "nonpayable",
      "type": "function"
    },
    {
      "inputs": [],
      "name": "renounceRetailer",
      "outputs": [],
      "stateMutability": "nonpayable",
      "type": "function"
    },
    {
      "inputs": [
        {
          "internalType": "address",
          "name": "newOwner",
          "type": "address"
        }
      ],
      "name": "transferOwnership",
      "outputs": [],
      "stateMutability": "nonpayable",
      "type": "function"
    },
    {
      "inputs": [
        {
          "internalType": "uint256",
          "name": "_upc",
          "type": "uint256"
        },
        {
          "internalType": "address",
          "name": "_originFarmerID",
          "type": "address"
        },
        {
          "internalType": "string",
          "name": "_originFarmName",
          "type": "string"
        },
        {
          "internalType": "string",
          "name": "_originFarmInformation",
          "type": "string"
        },
        {
          "internalType": "string",
          "name": "_originFarmLatitude",
          "type": "string"
        },
        {
          "internalType": "string",
          "name": "_originFarmLongitude",
          "type": "string"
        },
        {
          "internalType": "string",
          "name": "_productNotes",
          "type": "string"
        }
      ],
      "name": "harvestItem",
      "outputs": [],
      "stateMutability": "nonpayable",
      "type": "function"
    },
    {
      "inputs": [
        {
          "internalType": "uint256",
          "name": "_upc",
          "type": "uint256"
        }
      ],
      "name": "processItem",
      "outputs": [],
      "stateMutability": "nonpayable",
      "type": "function"
    },
    {
      "inputs": [
        {
          "internalType": "uint256",
          "name": "_upc",
          "type": "uint256"
        }
      ],
      "name": "packItem",
      "outputs": [],
      "stateMutability": "nonpayable",
      "type": "function"
    },
    {
      "inputs": [
        {
          "internalType": "uint256",
          "name": "_upc",
          "type": "uint256"
        },
        {
          "internalType": "uint256",
          "name": "_price",
          "type": "uint256"
        }
      ],
      "name": "sellItem",
      "outputs": [],
      "stateMutability": "nonpayable",
      "type": "function"
    },
    {
      "inputs": [
        {
          "internalType": "uint256",
          "name": "_upc",
          "type": "uint256"
        }
      ],
      "name": "buyItem",
      "outputs": [],
      "stateMutability": "payable",
      "type": "function",
      "payable": true
    },
    {
      "inputs": [
        {
          "internalType": "uint256",
          "name": "_upc",
          "type": "uint256"
        }
      ],
      "name": "shipItem",
      "outputs": [],
      "stateMutability": "nonpayable",
      "type": "function"
    },
    {
      "inputs": [
        {
          "internalType": "uint256",
          "name": "_upc",
          "type": "uint256"
        }
      ],
      "name": "receiveItem",
      "outputs": [],
      "stateMutability": "nonpayable",
      "type": "function"
    },
    {
      "inputs": [
        {
          "internalType": "uint256",
          "name": "_upc",
          "type": "uint256"
        }
      ],
      "name": "purchaseItem",
      "outputs": [],
      "stateMutability": "nonpayable",
      "type": "function"
    },
    {
      "inputs": [
        {
          "internalType": "uint256",
          "name": "_upc",
          "type": "uint256"
        }
      ],
      "name": "fetchItemBufferOne",
      "outputs": [
        {
          "internalType": "uint256",
          "name": "itemSKU",
          "type": "uint256"
        },
        {
          "internalType": "uint256",
          "name": "itemUPC",
          "type": "uint256"
        },
        {
          "internalType": "address",
          "name": "ownerID",
          "type": "address"
        },
        {
          "internalType": "address",
          "name": "originFarmerID",
          "type": "address"
        },
        {
          "internalType": "string",
          "name": "originFarmName",
          "type": "string"
        },
        {
          "internalType": "string",
          "name": "originFarmInformation",
          "type": "string"
        },
        {
          "internalType": "string",
          "name": "originFarmLatitude",
          "type": "string"
        },
        {
          "internalType": "string",
          "name": "originFarmLongitude",
          "type": "string"
        }
      ],
      "stateMutability": "view",
      "type": "function",
      "constant": true
    },
    {
      "inputs": [
        {
          "internalType": "uint256",
          "name": "_upc",
          "type": "uint256"
        }
      ],
      "name": "fetchItemBufferTwo",
      "outputs": [
        {
          "internalType": "uint256",
          "name": "itemSKU",
          "type": "uint256"
        },
        {
          "internalType": "uint256",
          "name": "itemUPC",
          "type": "uint256"
        },
        {
          "internalType": "uint256",
          "name": "productID",
          "type": "uint256"
        },
        {
          "internalType": "string",
          "name": "productNotes",
          "type": "string"
        },
        {
          "internalType": "uint256",
          "name": "productPrice",
          "type": "uint256"
        },
        {
          "internalType": "uint256",
          "name": "itemState",
          "type": "uint256"
        },
        {
          "internalType": "address",
          "name": "distributorID",
          "type": "address"
        },
        {
          "internalType": "address",
          "name": "retailerID",
          "type": "address"
        },
        {
          "internalType": "address",
          "name": "consumerID",
          "type": "address"
        }
      ],
      "stateMutability": "view",
      "type": "function",
      "constant": true
    }
  ],
  "bytecode": "0x6080604052336000806101000a81548173ffffffffffffffffffffffffffffffffffffffff021916908373ffffffffffffffffffffffffffffffffffffffff16021790555060008054906101000a900473ffffffffffffffffffffffffffffffffffffffff1673ffffffffffffffffffffffffffffffffffffffff16600073ffffffffffffffffffffffffffffffffffffffff167f5c486528ec3e3f0ea91181cff8116f02bfa350e03b8b6f12e00765adbb5af85c60405160405180910390a3620000d0336200015a60201b60201c565b620000e133620001bb60201b60201c565b620000f2336200021c60201b60201c565b62000103336200027d60201b60201c565b33600560006101000a81548173ffffffffffffffffffffffffffffffffffffffff021916908373ffffffffffffffffffffffffffffffffffffffff1602179055506001600781905550600160068190555062000427565b62000175816001620002de60201b620020931790919060201c565b8073ffffffffffffffffffffffffffffffffffffffff167f2e0ded4123377a3c2bc9a26f1717655a129e2f20752924d42e730ec89c83dbd060405160405180910390a250565b620001d6816002620002de60201b620020931790919060201c565b8073ffffffffffffffffffffffffffffffffffffffff167fddbf200aa634dc3fb81cfd68583dd1040d1c751d335e1d86b631bde3e977fea860405160405180910390a250565b62000237816003620002de60201b620020931790919060201c565b8073ffffffffffffffffffffffffffffffffffffffff167f71ae26cad02663e3d92efd6ec56031a80d74a20c0ab4183faa8bf262261c9baa60405160405180910390a250565b62000298816004620002de60201b620020931790919060201c565b8073ffffffffffffffffffffffffffffffffffffffff167f28b26e7a3d20aedbc5f8f2ebf7da671c0491723a2b78f47a097b0e46dee0714260405160405180910390a250565b600073ffffffffffffffffffffffffffffffffffffffff168173ffffffffffffffffffffffffffffffffffffffff1614156200031957600080fd5b6200032b82826200039460201b60201c565b156200033657600080fd5b60018260000160008373ffffffffffffffffffffffffffffffffffffffff1673ffffffffffffffffffffffffffffffffffffffff16815260200190815260200160002060006101000a81548160ff0219169083151502179055505050565b60008073ffffffffffffffffffffffffffffffffffffffff168273ffffffffffffffffffffffffffffffffffffffff161415620003d057600080fd5b8260000160008373ffffffffffffffffffffffffffffffffffffffff1673ffffffffffffffffffffffffffffffffffffffff16815260200190815260200160002060009054906101000a900460ff16905092915050565b61363b80620004376000396000f3fe6080604052600436106101815760003560e01c80638ec4f505116100d1578063ce606ee01161008a578063e7fb74c711610064578063e7fb74c71461053d578063f2fde38b14610559578063f30fc48014610582578063f61c899a146105ab57610181565b8063ce606ee0146104d2578063d38ea5bf146104fd578063db0e6a2f1461052657610181565b80638ec4f505146103b25780638f0c86fa146103db5780638f32d59b14610418578063a26be99914610443578063b94290691461046c578063bdd8a6a8146104a957610181565b806366225ff91161013e57806377c459131161011857806377c45913146102f157806380c3f96d1461033557806380fc0ce41461035e578063834ff7391461037557610181565b806366225ff91461026c578063715018a6146102b15780637250e224146102c857610181565b8063112940f9146101865780632d923561146101af57806349dae766146101d85780635da09b881461020157806361e6982d1461023e578063644241db14610255575b600080fd5b34801561019257600080fd5b506101ad60048036038101906101a891906127b6565b6105d4565b005b3480156101bb57600080fd5b506101d660048036038101906101d1919061293e565b610628565b005b3480156101e457600080fd5b506101ff60048036038101906101fa91906127e3565b610837565b005b34801561020d57600080fd5b50610228600480360381019061022391906127b6565b610a2a565b6040516102359190612c0c565b60405180910390f35b34801561024a57600080fd5b50610253610a47565b005b34801561026157600080fd5b5061026a610a52565b005b34801561027857600080fd5b50610293600480360381019061028e91906127e3565b610a5d565b6040516102a899989796959493929190612ebc565b60405180910390f35b3480156102bd57600080fd5b506102c6610c61565b005b3480156102d457600080fd5b506102ef60048036038101906102ea91906127b6565b610d66565b005b3480156102fd57600080fd5b50610318600480360381019061031391906127e3565b610dba565b60405161032c989796959493929190612e22565b60405180910390f35b34801561034157600080fd5b5061035c600480360381019061035791906127b6565b6110f9565b005b34801561036a57600080fd5b5061037361114d565b005b34801561038157600080fd5b5061039c600480360381019061039791906127b6565b611158565b6040516103a99190612c0c565b60405180910390f35b3480156103be57600080fd5b506103d960048036038101906103d491906127b6565b611175565b005b3480156103e757600080fd5b5061040260048036038101906103fd91906127b6565b6111c9565b60405161040f9190612c0c565b60405180910390f35b34801561042457600080fd5b5061042d6111e6565b60405161043a9190612c0c565b60405180910390f35b34801561044f57600080fd5b5061046a600480360381019061046591906127e3565b61123d565b005b34801561047857600080fd5b50610493600480360381019061048e91906127b6565b611434565b6040516104a09190612c0c565b60405180910390f35b3480156104b557600080fd5b506104d060048036038101906104cb9190612810565b611451565b005b3480156104de57600080fd5b506104e76116c8565b6040516104f49190612bf1565b60405180910390f35b34801561050957600080fd5b50610524600480360381019061051f91906127e3565b6116f1565b005b34801561053257600080fd5b5061053b6118ee565b005b610557600480360381019061055291906127e3565b6118f9565b005b34801561056557600080fd5b50610580600480360381019061057b91906127b6565b611c5a565b005b34801561058e57600080fd5b506105a960048036038101906105a491906127e3565b611cad565b005b3480156105b757600080fd5b506105d260048036038101906105cd91906127e3565b611ea0565b005b6105dd33611158565b61061c576040517f08c379a000000000000000000000000000000000000000000000000000000000815260040161061390612d27565b60405180910390fd5b6106258161213f565b50565b816002600781111561063d5761063c613168565b5b60086000838152602001908152602001600020600b0160009054906101000a900460ff16600781111561067357610672613168565b5b146106b3576040517f08c379a00000000000000000000000000000000000000000000000000000000081526004016106aa90612da7565b60405180910390fd5b6008600084815260200190815260200160002060020160009054906101000a900473ffffffffffffffffffffffffffffffffffffffff168073ffffffffffffffffffffffffffffffffffffffff163373ffffffffffffffffffffffffffffffffffffffff1614610758576040517f08c379a000000000000000000000000000000000000000000000000000000000815260040161074f90612c47565b60405180910390fd5b61076133611434565b6107a0576040517f08c379a000000000000000000000000000000000000000000000000000000000815260040161079790612ca7565b60405180910390fd5b600360086000868152602001908152602001600020600b0160006101000a81548160ff021916908360078111156107da576107d9613168565b5b02179055508260086000868152602001908152602001600020600a01819055507fa96ae0fc3224ebd79eebfe54bd130cc9cb94416cddd1f2386115e00b72532468846040516108299190612e07565b60405180910390a150505050565b806000600781111561084c5761084b613168565b5b60086000838152602001908152602001600020600b0160009054906101000a900460ff16600781111561088257610881613168565b5b146108c2576040517f08c379a00000000000000000000000000000000000000000000000000000000081526004016108b990612ce7565b60405180910390fd5b6008600083815260200190815260200160002060020160009054906101000a900473ffffffffffffffffffffffffffffffffffffffff168073ffffffffffffffffffffffffffffffffffffffff163373ffffffffffffffffffffffffffffffffffffffff1614610967576040517f08c379a000000000000000000000000000000000000000000000000000000000815260040161095e90612c47565b60405180910390fd5b61097033611434565b6109af576040517f08c379a00000000000000000000000000000000000000000000000000000000081526004016109a690612ca7565b60405180910390fd5b600160086000858152602001908152602001600020600b0160006101000a81548160ff021916908360078111156109e9576109e8613168565b5b02179055507f5afe3b1bf87069693c075da5c22a98d63d1aef98a30dbbe538d0781a98b77ee583604051610a1d9190612e07565b60405180910390a1505050565b6000610a4082600361219990919063ffffffff16565b9050919050565b610a503361222b565b565b610a5b33612285565b565b600080600060606000806000806000600860008b8152602001908152602001600020600001549850600860008b8152602001908152602001600020600101549750600860008b8152602001908152602001600020600801549650600860008b81526020019081526020016000206009018054610ad8906130d6565b80601f0160208091040260200160405190810160405280929190818152602001828054610b04906130d6565b8015610b515780601f10610b2657610100808354040283529160200191610b51565b820191906000526020600020905b815481529060010190602001808311610b3457829003601f168201915b50505050509550600860008b8152602001908152602001600020600a01549450600860008b8152602001908152602001600020600b0160009054906101000a900460ff166007811115610ba757610ba6613168565b5b9350600860008b8152602001908152602001600020600b0160019054906101000a900473ffffffffffffffffffffffffffffffffffffffff169250600860008b8152602001908152602001600020600c0160009054906101000a900473ffffffffffffffffffffffffffffffffffffffff169150600860008b8152602001908152602001600020600d0160009054906101000a900473ffffffffffffffffffffffffffffffffffffffff1690509193959799909294969850565b610c696111e6565b610ca8576040517f08c379a0000000000000000000000000000000000000000000000000000000008152600401610c9f90612d07565b60405180910390fd5b600073ffffffffffffffffffffffffffffffffffffffff1660008054906101000a900473ffffffffffffffffffffffffffffffffffffffff1673ffffffffffffffffffffffffffffffffffffffff167f5c486528ec3e3f0ea91181cff8116f02bfa350e03b8b6f12e00765adbb5af85c60405160405180910390a360008060006101000a81548173ffffffffffffffffffffffffffffffffffffffff021916908373ffffffffffffffffffffffffffffffffffffffff160217905550565b610d6f336111c9565b610dae576040517f08c379a0000000000000000000000000000000000000000000000000000000008152600401610da590612d47565b60405180910390fd5b610db7816122df565b50565b600080600080606080606080600860008a8152602001908152602001600020600001549750600860008a8152602001908152602001600020600101549650600860008a815260200190815260200160002060020160009054906101000a900473ffffffffffffffffffffffffffffffffffffffff169550600860008a815260200190815260200160002060030160009054906101000a900473ffffffffffffffffffffffffffffffffffffffff169450600860008a81526020019081526020016000206004018054610e8b906130d6565b80601f0160208091040260200160405190810160405280929190818152602001828054610eb7906130d6565b8015610f045780601f10610ed957610100808354040283529160200191610f04565b820191906000526020600020905b815481529060010190602001808311610ee757829003601f168201915b50505050509350600860008a81526020019081526020016000206005018054610f2c906130d6565b80601f0160208091040260200160405190810160405280929190818152602001828054610f58906130d6565b8015610fa55780601f10610f7a57610100808354040283529160200191610fa5565b820191906000526020600020905b815481529060010190602001808311610f8857829003601f168201915b50505050509250600860008a81526020019081526020016000206006018054610fcd906130d6565b80601f0160208091040260200160405190810160405280929190818152602001828054610ff9906130d6565b80156110465780601f1061101b57610100808354040283529160200191611046565b820191906000526020600020905b81548152906001019060200180831161102957829003601f168201915b50505050509150600860008a8152602001908152602001600020600701805461106e906130d6565b80601f016020809104026020016040519081016040528092919081815260200182805461109a906130d6565b80156110e75780601f106110bc576101008083540402835291602001916110e7565b820191906000526020600020905b8154815290600101906020018083116110ca57829003601f168201915b50505050509050919395975091939597565b61110233611434565b611141576040517f08c379a000000000000000000000000000000000000000000000000000000000815260040161113890612ca7565b60405180910390fd5b61114a81612339565b50565b61115633612393565b565b600061116e82600461219990919063ffffffff16565b9050919050565b61117e33610a2a565b6111bd576040517f08c379a00000000000000000000000000000000000000000000000000000000081526004016111b490612d87565b60405180910390fd5b6111c6816123ed565b50565b60006111df82600261219990919063ffffffff16565b9050919050565b60008060009054906101000a900473ffffffffffffffffffffffffffffffffffffffff1673ffffffffffffffffffffffffffffffffffffffff163373ffffffffffffffffffffffffffffffffffffffff1614905090565b806005600781111561125257611251613168565b5b60086000838152602001908152602001600020600b0160009054906101000a900460ff16600781111561128857611287613168565b5b146112c8576040517f08c379a00000000000000000000000000000000000000000000000000000000081526004016112bf90612cc7565b60405180910390fd5b6112d133610a2a565b611310576040517f08c379a000000000000000000000000000000000000000000000000000000000815260040161130790612d87565b60405180910390fd5b336008600084815260200190815260200160002060020160006101000a81548173ffffffffffffffffffffffffffffffffffffffff021916908373ffffffffffffffffffffffffffffffffffffffff1602179055503360086000848152602001908152602001600020600c0160006101000a81548173ffffffffffffffffffffffffffffffffffffffff021916908373ffffffffffffffffffffffffffffffffffffffff160217905550600660086000848152602001908152602001600020600b0160006101000a81548160ff021916908360078111156113f4576113f3613168565b5b02179055507fa8142743f8f70a4c26f3691cf4ed59718381fb2f18070ec52be1f1022d855557826040516114289190612e07565b60405180910390a15050565b600061144a82600161219990919063ffffffff16565b9050919050565b60075460086000898152602001908152602001600020600001819055506006546008600089815260200190815260200160002060010181905550856008600089815260200190815260200160002060020160006101000a81548173ffffffffffffffffffffffffffffffffffffffff021916908373ffffffffffffffffffffffffffffffffffffffff160217905550856008600089815260200190815260200160002060030160006101000a81548173ffffffffffffffffffffffffffffffffffffffff021916908373ffffffffffffffffffffffffffffffffffffffff1602179055508460086000898152602001908152602001600020600401908051906020019061155f929190612679565b508360086000898152602001908152602001600020600501908051906020019061158a929190612679565b50826008600089815260200190815260200160002060060190805190602001906115b5929190612679565b50816008600089815260200190815260200160002060070190805190602001906115e0929190612679565b50600754876115ef9190612fc2565b600860008981526020019081526020016000206008018190555080600860008981526020019081526020016000206009019080519060200190611633929190612679565b50600060086000898152602001908152602001600020600b0160006101000a81548160ff0219169083600781111561166e5761166d613168565b5b021790555060016007546116829190612fc2565b6007819055507f8e55ccfc9778ff8eba1646d765cf1982537ce0f9257054a17b48aad745250183876040516116b79190612e07565b60405180910390a150505050505050565b60008060009054906101000a900473ffffffffffffffffffffffffffffffffffffffff16905090565b806006600781111561170657611705613168565b5b60086000838152602001908152602001600020600b0160009054906101000a900460ff16600781111561173c5761173b613168565b5b1461177c576040517f08c379a000000000000000000000000000000000000000000000000000000000815260040161177390612c87565b60405180910390fd5b61178533611158565b6117c4576040517f08c379a00000000000000000000000000000000000000000000000000000000081526004016117bb90612d27565b60405180910390fd5b6000339050806008600085815260200190815260200160002060020160006101000a81548173ffffffffffffffffffffffffffffffffffffffff021916908373ffffffffffffffffffffffffffffffffffffffff1602179055508060086000858152602001908152602001600020600d0160006101000a81548173ffffffffffffffffffffffffffffffffffffffff021916908373ffffffffffffffffffffffffffffffffffffffff160217905550600760086000858152602001908152602001600020600b0160006101000a81548160ff021916908360078111156118ad576118ac613168565b5b02179055507f653d56639fee6b566a5c804764e9689de38645f0b733df89a36a1b7b42173dd8836040516118e19190612e07565b60405180910390a1505050565b6118f733612447565b565b806003600781111561190e5761190d613168565b5b60086000838152602001908152602001600020600b0160009054906101000a900460ff16600781111561194457611943613168565b5b14611984576040517f08c379a000000000000000000000000000000000000000000000000000000000815260040161197b90612dc7565b60405180910390fd5b60086000838152602001908152602001600020600a0154803410156119de576040517f08c379a00000000000000000000000000000000000000000000000000000000081526004016119d590612d67565b60405180910390fd5b826119e8336111c9565b611a27576040517f08c379a0000000000000000000000000000000000000000000000000000000008152600401611a1e90612d47565b60405180910390fd5b336008600086815260200190815260200160002060020160006101000a81548173ffffffffffffffffffffffffffffffffffffffff021916908373ffffffffffffffffffffffffffffffffffffffff1602179055503360086000868152602001908152602001600020600b0160016101000a81548173ffffffffffffffffffffffffffffffffffffffff021916908373ffffffffffffffffffffffffffffffffffffffff160217905550600460086000868152602001908152602001600020600b0160006101000a81548160ff02191690836007811115611b0b57611b0a613168565b5b021790555060003390508073ffffffffffffffffffffffffffffffffffffffff166108fc60086000888152602001908152602001600020600a01549081150290604051600060405180830381858888f19350505050158015611b71573d6000803e3d6000fd5b507f92f64ca637d023f354075a4be751b169c1a8a9ccb6d33cdd0cb352054399572785604051611ba19190612e07565b60405180910390a150600060086000838152602001908152602001600020600a0154905060008134611bd39190613018565b905060086000848152602001908152602001600020600d0160009054906101000a900473ffffffffffffffffffffffffffffffffffffffff1673ffffffffffffffffffffffffffffffffffffffff166108fc829081150290604051600060405180830381858888f19350505050158015611c51573d6000803e3d6000fd5b50505050505050565b611c626111e6565b611ca1576040517f08c379a0000000000000000000000000000000000000000000000000000000008152600401611c9890612d07565b60405180910390fd5b611caa816124a1565b50565b8060016007811115611cc257611cc1613168565b5b60086000838152602001908152602001600020600b0160009054906101000a900460ff166007811115611cf857611cf7613168565b5b14611d38576040517f08c379a0000000000000000000000000000000000000000000000000000000008152600401611d2f90612c27565b60405180910390fd5b6008600083815260200190815260200160002060020160009054906101000a900473ffffffffffffffffffffffffffffffffffffffff168073ffffffffffffffffffffffffffffffffffffffff163373ffffffffffffffffffffffffffffffffffffffff1614611ddd576040517f08c379a0000000000000000000000000000000000000000000000000000000008152600401611dd490612c47565b60405180910390fd5b611de633611434565b611e25576040517f08c379a0000000000000000000000000000000000000000000000000000000008152600401611e1c90612ca7565b60405180910390fd5b600260086000858152602001908152602001600020600b0160006101000a81548160ff02191690836007811115611e5f57611e5e613168565b5b02179055507f9b3b66e2380b690bae22c73ef1428fb0c91e72fe14a4b6defa13035214187aff83604051611e939190612e07565b60405180910390a1505050565b8060046007811115611eb557611eb4613168565b5b60086000838152602001908152602001600020600b0160009054906101000a900460ff166007811115611eeb57611eea613168565b5b14611f2b576040517f08c379a0000000000000000000000000000000000000000000000000000000008152600401611f2290612de7565b60405180910390fd5b6008600083815260200190815260200160002060020160009054906101000a900473ffffffffffffffffffffffffffffffffffffffff168073ffffffffffffffffffffffffffffffffffffffff163373ffffffffffffffffffffffffffffffffffffffff1614611fd0576040517f08c379a0000000000000000000000000000000000000000000000000000000008152600401611fc790612c47565b60405180910390fd5b611fd9336111c9565b612018576040517f08c379a000000000000000000000000000000000000000000000000000000000815260040161200f90612d47565b60405180910390fd5b600560086000858152602001908152602001600020600b0160006101000a81548160ff0219169083600781111561205257612051613168565b5b02179055507ff00b9a5725b80c54016f42114f6ed7792d22eecb116011c4afac29c57bef6c95836040516120869190612e07565b60405180910390a1505050565b600073ffffffffffffffffffffffffffffffffffffffff168173ffffffffffffffffffffffffffffffffffffffff1614156120cd57600080fd5b6120d78282612199565b156120e157600080fd5b60018260000160008373ffffffffffffffffffffffffffffffffffffffff1673ffffffffffffffffffffffffffffffffffffffff16815260200190815260200160002060006101000a81548160ff0219169083151502179055505050565b61215381600461209390919063ffffffff16565b8073ffffffffffffffffffffffffffffffffffffffff167f28b26e7a3d20aedbc5f8f2ebf7da671c0491723a2b78f47a097b0e46dee0714260405160405180910390a250565b60008073ffffffffffffffffffffffffffffffffffffffff168273ffffffffffffffffffffffffffffffffffffffff1614156121d457600080fd5b8260000160008373ffffffffffffffffffffffffffffffffffffffff1673ffffffffffffffffffffffffffffffffffffffff16815260200190815260200160002060009054906101000a900460ff16905092915050565b61223f8160046125ce90919063ffffffff16565b8073ffffffffffffffffffffffffffffffffffffffff167fe3f5ed5f263f1f01764a96edfc7d025f511ec5f7d180e8816908b78bcf74f09860405160405180910390a250565b6122998160026125ce90919063ffffffff16565b8073ffffffffffffffffffffffffffffffffffffffff167f126174f6cf49c81cdb4a9214c6b8f037bef55b4ec31e4fc776cea2a1c8a88d5960405160405180910390a250565b6122f381600261209390919063ffffffff16565b8073ffffffffffffffffffffffffffffffffffffffff167fddbf200aa634dc3fb81cfd68583dd1040d1c751d335e1d86b631bde3e977fea860405160405180910390a250565b61234d81600161209390919063ffffffff16565b8073ffffffffffffffffffffffffffffffffffffffff167f2e0ded4123377a3c2bc9a26f1717655a129e2f20752924d42e730ec89c83dbd060405160405180910390a250565b6123a78160016125ce90919063ffffffff16565b8073ffffffffffffffffffffffffffffffffffffffff167fa5e0f060af304ab17dd418c7927e3da3ae7868189bf387aee09ab179ccc572f260405160405180910390a250565b61240181600361209390919063ffffffff16565b8073ffffffffffffffffffffffffffffffffffffffff167f71ae26cad02663e3d92efd6ec56031a80d74a20c0ab4183faa8bf262261c9baa60405160405180910390a250565b61245b8160036125ce90919063ffffffff16565b8073ffffffffffffffffffffffffffffffffffffffff167fdb7176e79cffef81cb01767dd0447a0b24bb72ca9778d4b245581086b2a7e6db60405160405180910390a250565b600073ffffffffffffffffffffffffffffffffffffffff168173ffffffffffffffffffffffffffffffffffffffff161415612511576040517f08c379a000000000000000000000000000000000000000000000000000000000815260040161250890612c67565b60405180910390fd5b8073ffffffffffffffffffffffffffffffffffffffff1660008054906101000a900473ffffffffffffffffffffffffffffffffffffffff1673ffffffffffffffffffffffffffffffffffffffff167f5c486528ec3e3f0ea91181cff8116f02bfa350e03b8b6f12e00765adbb5af85c60405160405180910390a3806000806101000a81548173ffffffffffffffffffffffffffffffffffffffff021916908373ffffffffffffffffffffffffffffffffffffffff16021790555050565b600073ffffffffffffffffffffffffffffffffffffffff168173ffffffffffffffffffffffffffffffffffffffff16141561260857600080fd5b6126128282612199565b61261b57600080fd5b60008260000160008373ffffffffffffffffffffffffffffffffffffffff1673ffffffffffffffffffffffffffffffffffffffff16815260200190815260200160002060006101000a81548160ff0219169083151502179055505050565b828054612685906130d6565b90600052602060002090601f0160209004810192826126a757600085556126ee565b82601f106126c057805160ff19168380011785556126ee565b828001600101855582156126ee579182015b828111156126ed5782518255916020019190600101906126d2565b5b5090506126fb91906126ff565b5090565b5b80821115612718576000816000905550600101612700565b5090565b600061272f61272a84612f75565b612f50565b90508281526020810184848401111561274b5761274a6131fa565b5b612756848285613094565b509392505050565b60008135905061276d816135d7565b92915050565b600082601f830112612788576127876131f5565b5b813561279884826020860161271c565b91505092915050565b6000813590506127b0816135ee565b92915050565b6000602082840312156127cc576127cb613204565b5b60006127da8482850161275e565b91505092915050565b6000602082840312156127f9576127f8613204565b5b6000612807848285016127a1565b91505092915050565b600080600080600080600060e0888a03121561282f5761282e613204565b5b600061283d8a828b016127a1565b975050602061284e8a828b0161275e565b965050604088013567ffffffffffffffff81111561286f5761286e6131ff565b5b61287b8a828b01612773565b955050606088013567ffffffffffffffff81111561289c5761289b6131ff565b5b6128a88a828b01612773565b945050608088013567ffffffffffffffff8111156128c9576128c86131ff565b5b6128d58a828b01612773565b93505060a088013567ffffffffffffffff8111156128f6576128f56131ff565b5b6129028a828b01612773565b92505060c088013567ffffffffffffffff811115612923576129226131ff565b5b61292f8a828b01612773565b91505092959891949750929550565b6000806040838503121561295557612954613204565b5b6000612963858286016127a1565b9250506020612974858286016127a1565b9150509250929050565b6129878161304c565b82525050565b6129968161305e565b82525050565b60006129a782612fa6565b6129b18185612fb1565b93506129c18185602086016130a3565b6129ca81613209565b840191505092915050565b60006129e2602683612fb1565b91506129ed8261321a565b604082019050919050565b6000612a05602883612fb1565b9150612a1082613269565b604082019050919050565b6000612a28602283612fb1565b9150612a33826132b8565b604082019050919050565b6000612a4b602583612fb1565b9150612a5682613307565b604082019050919050565b6000612a6e600e83612fb1565b9150612a7982613356565b602082019050919050565b6000612a91602483612fb1565b9150612a9c8261337f565b604082019050919050565b6000612ab4602683612fb1565b9150612abf826133ce565b604082019050919050565b6000612ad7601583612fb1565b9150612ae28261341d565b602082019050919050565b6000612afa601083612fb1565b9150612b0582613446565b602082019050919050565b6000612b1d601383612fb1565b9150612b288261346f565b602082019050919050565b6000612b40601e83612fb1565b9150612b4b82613498565b602082019050919050565b6000612b63601083612fb1565b9150612b6e826134c1565b602082019050919050565b6000612b86602383612fb1565b9150612b91826134ea565b604082019050919050565b6000612ba9602483612fb1565b9150612bb482613539565b604082019050919050565b6000612bcc602183612fb1565b9150612bd782613588565b604082019050919050565b612beb8161308a565b82525050565b6000602082019050612c06600083018461297e565b92915050565b6000602082019050612c21600083018461298d565b92915050565b60006020820190508181036000830152612c40816129d5565b9050919050565b60006020820190508181036000830152612c60816129f8565b9050919050565b60006020820190508181036000830152612c8081612a1b565b9050919050565b60006020820190508181036000830152612ca081612a3e565b9050919050565b60006020820190508181036000830152612cc081612a61565b9050919050565b60006020820190508181036000830152612ce081612a84565b9050919050565b60006020820190508181036000830152612d0081612aa7565b9050919050565b60006020820190508181036000830152612d2081612aca565b9050919050565b60006020820190508181036000830152612d4081612aed565b9050919050565b60006020820190508181036000830152612d6081612b10565b9050919050565b60006020820190508181036000830152612d8081612b33565b9050919050565b60006020820190508181036000830152612da081612b56565b9050919050565b60006020820190508181036000830152612dc081612b79565b9050919050565b60006020820190508181036000830152612de081612b9c565b9050919050565b60006020820190508181036000830152612e0081612bbf565b9050919050565b6000602082019050612e1c6000830184612be2565b92915050565b600061010082019050612e38600083018b612be2565b612e45602083018a612be2565b612e52604083018961297e565b612e5f606083018861297e565b8181036080830152612e71818761299c565b905081810360a0830152612e85818661299c565b905081810360c0830152612e99818561299c565b905081810360e0830152612ead818461299c565b90509998505050505050505050565b600061012082019050612ed2600083018c612be2565b612edf602083018b612be2565b612eec604083018a612be2565b8181036060830152612efe818961299c565b9050612f0d6080830188612be2565b612f1a60a0830187612be2565b612f2760c083018661297e565b612f3460e083018561297e565b612f4261010083018461297e565b9a9950505050505050505050565b6000612f5a612f6b565b9050612f668282613108565b919050565b6000604051905090565b600067ffffffffffffffff821115612f9057612f8f6131c6565b5b612f9982613209565b9050602081019050919050565b600081519050919050565b600082825260208201905092915050565b6000612fcd8261308a565b9150612fd88361308a565b9250827fffffffffffffffffffffffffffffffffffffffffffffffffffffffffffffffff0382111561300d5761300c613139565b5b828201905092915050565b60006130238261308a565b915061302e8361308a565b92508282101561304157613040613139565b5b828203905092915050565b60006130578261306a565b9050919050565b60008115159050919050565b600073ffffffffffffffffffffffffffffffffffffffff82169050919050565b6000819050919050565b82818337600083830152505050565b60005b838110156130c15780820151818401526020810190506130a6565b838111156130d0576000848401525b50505050565b600060028204905060018216806130ee57607f821691505b6020821081141561310257613101613197565b5b50919050565b61311182613209565b810181811067ffffffffffffffff821117156131305761312f6131c6565b5b80604052505050565b7f4e487b7100000000000000000000000000000000000000000000000000000000600052601160045260246000fd5b7f4e487b7100000000000000000000000000000000000000000000000000000000600052602160045260246000fd5b7f4e487b7100000000000000000000000000000000000000000000000000000000600052602260045260246000fd5b7f4e487b7100000000000000000000000000000000000000000000000000000000600052604160045260246000fd5b600080fd5b600080fd5b600080fd5b600080fd5b6000601f19601f8301169050919050565b7f546865206974656d206d7573742062652077697468207374617475732050726f60008201527f6365737365640000000000000000000000000000000000000000000000000000602082015250565b7f497420776173206e6f7420706f737369626c6520746f2076657269667920746860008201527f652063616c6c6572000000000000000000000000000000000000000000000000602082015250565b7f4e6f7420706f737369626c6520746f207472616e73666572204f6e776572736860008201527f6970000000000000000000000000000000000000000000000000000000000000602082015250565b7f546865206974656d206d7573742062652077697468207374617475732052656360008201527f6569766564000000000000000000000000000000000000000000000000000000602082015250565b7f4d757374206265206661726d6572000000000000000000000000000000000000600082015250565b7f546865206974656d206d7573742062652077697468207374617475732053686960008201527f7070656400000000000000000000000000000000000000000000000000000000602082015250565b7f546865206974656d206d7573742062652077697468207374617475732048617260008201527f7665737465640000000000000000000000000000000000000000000000000000602082015250565b7f54686973206973206e6f7420746865204f776e65720000000000000000000000600082015250565b7f4d75737420626520636f6e73756d657200000000000000000000000000000000600082015250565b7f4d757374206265206469737472696275746f7200000000000000000000000000600082015250565b7f54686520616d6f756e74207061696420776173206e6f7420656e6f7567680000600082015250565b7f4d7573742062652072657461696c657200000000000000000000000000000000600082015250565b7f546865206974656d206d7573742062652077697468207374617475732050616360008201527f6b65640000000000000000000000000000000000000000000000000000000000602082015250565b7f546865206974656d206d75737420626520776974682073746174757320466f7260008201527f53616c6500000000000000000000000000000000000000000000000000000000602082015250565b7f546865206974656d206d75737420626520776974682073746174757320536f6c60008201527f6400000000000000000000000000000000000000000000000000000000000000602082015250565b6135e08161304c565b81146135eb57600080fd5b50565b6135f78161308a565b811461360257600080fd5b5056fea264697066735822122087348755ef7f553f7b479a865461d28be7288fd39aa00fc8bccc8a3b5acb3b4164736f6c63430008070033",
  "immutableReferences": {},
  "source": "// SPDX-License-Identifier: MIT\r\npragma solidity >=0.4.24;\r\n\r\nimport \"../coffeeaccesscontrol/FarmerRole.sol\";\r\nimport \"../coffeeaccesscontrol/DistributorRole.sol\";\r\nimport \"../coffeeaccesscontrol/RetailerRole.sol\";\r\nimport \"../coffeeaccesscontrol/ConsumerRole.sol\";\r\nimport \"../coffeecore/Ownable.sol\";\r\n\r\n// Define a contract 'Supplychain'\r\ncontract SupplyChain is Ownable, FarmerRole, DistributorRole, RetailerRole, ConsumerRole{\r\n\r\n  // Define 'owner'\r\n  address owner;\r\n\r\n  // Define a variable called 'upc' for Universal Product Code (UPC)\r\n  uint  upc;\r\n\r\n  // Define a variable called 'sku' for Stock Keeping Unit (SKU)\r\n  uint  sku;\r\n\r\n  // Define a public mapping 'items' that maps the UPC to an Item.\r\n  mapping (uint => Item) items;\r\n\r\n  // Define a public mapping 'itemsHistory' that maps the UPC to an array of TxHash, \r\n  // that track its journey through the supply chain -- to be sent from DApp.\r\n  mapping (uint => string[]) itemsHistory;\r\n  \r\n  // Define enum 'State' with the following values:\r\n  enum State \r\n  { \r\n    Harvested,  // 0\r\n    Processed,  // 1\r\n    Packed,     // 2\r\n    ForSale,    // 3\r\n    Sold,       // 4\r\n    Shipped,    // 5\r\n    Received,   // 6\r\n    Purchased   // 7\r\n    }\r\n\r\n  State constant defaultState = State.Harvested;\r\n\r\n  // Define a struct 'Item' with the following fields:\r\n  struct Item {\r\n    uint    sku;  // Stock Keeping Unit (SKU)\r\n    uint    upc; // Universal Product Code (UPC), generated by the Farmer, goes on the package, can be verified by the Consumer\r\n    address ownerID;  // Metamask-Ethereum address of the current owner as the product moves through 8 stages\r\n    address originFarmerID; // Metamask-Ethereum address of the Farmer\r\n    string  originFarmName; // Farmer Name\r\n    string  originFarmInformation;  // Farmer Information\r\n    string  originFarmLatitude; // Farm Latitude\r\n    string  originFarmLongitude;  // Farm Longitude\r\n    uint    productID;  // Product ID potentially a combination of upc + sku\r\n    string  productNotes; // Product Notes\r\n    uint    productPrice; // Product Price\r\n    State   itemState;  // Product State as represented in the enum above\r\n    address distributorID;  // Metamask-Ethereum address of the Distributor\r\n    address retailerID; // Metamask-Ethereum address of the Retailer\r\n    address payable consumerID; // Metamask-Ethereum address of the Consumer\r\n  }\r\n\r\n  // Define 8 events with the same 8 state values and accept 'upc' as input argument\r\n  event Harvested(uint upc);\r\n  event Processed(uint upc);\r\n  event Packed(uint upc);\r\n  event ForSale(uint upc);\r\n  event Sold(uint upc);\r\n  event Shipped(uint upc);\r\n  event Received(uint upc);\r\n  event Purchased(uint upc);\r\n\r\n  // Define a modifer that checks to see if msg.sender == owner of the contract\r\n  // modifier onlyOwner() {\r\n  //   require(msg.sender == owner);\r\n  //   _;\r\n  // }\r\n\r\n  // Define a modifer that verifies the Caller\r\n  modifier verifyCaller (address _address) {\r\n    require(msg.sender == _address, \"It was not possible to verify the caller\"); \r\n    _;\r\n  }\r\n\r\n  // Define a modifier that checks if the paid amount is sufficient to cover the price\r\n  modifier paidEnough(uint _price) { \r\n    require(msg.value >= _price, \"The amount paid was not enough\"); \r\n    _;\r\n  }\r\n  \r\n  // Define a modifier that checks the price and refunds the remaining balance\r\n  modifier checkValue(uint _upc) {\r\n    _;\r\n    uint _price = items[_upc].productPrice;\r\n    uint amountToReturn = msg.value - _price;\r\n    items[_upc].consumerID.transfer(amountToReturn);\r\n  }\r\n\r\n  // Define a modifier that checks if an item.state of a upc is Harvested\r\n  modifier harvested(uint _upc) {\r\n    require(items[_upc].itemState == State.Harvested, \"The item must be with status Harvested\");\r\n    _;\r\n  }\r\n\r\n  // Define a modifier that checks if an item.state of a upc is Processed\r\n  modifier processed(uint _upc) {\r\n    require(items[_upc].itemState == State.Processed, \"The item must be with status Processed\");\r\n    _;\r\n  }\r\n  \r\n  // Define a modifier that checks if an item.state of a upc is Packed\r\n  modifier packed(uint _upc) {\r\n    require(items[_upc].itemState == State.Packed, \"The item must be with status Packed\");\r\n    _;\r\n  }\r\n\r\n  // Define a modifier that checks if an item.state of a upc is ForSale\r\n  modifier forSale(uint _upc) {\r\n    require(items[_upc].itemState == State.ForSale, \"The item must be with status ForSale\");\r\n    _;\r\n  }\r\n\r\n  // Define a modifier that checks if an item.state of a upc is Sold\r\n  modifier sold(uint _upc) {\r\n    require(items[_upc].itemState == State.Sold, \"The item must be with status Sold\");\r\n    _;\r\n  }\r\n  \r\n  // Define a modifier that checks if an item.state of a upc is Shipped\r\n  modifier shipped(uint _upc) {\r\n    require(items[_upc].itemState == State.Shipped, \"The item must be with status Shipped\");\r\n    _;\r\n  }\r\n\r\n  // Define a modifier that checks if an item.state of a upc is Received\r\n  modifier received(uint _upc) {\r\n    require(items[_upc].itemState == State.Received, \"The item must be with status Received\");\r\n    _;\r\n  }\r\n\r\n  // Define a modifier that checks if an item.state of a upc is Purchased\r\n  modifier purchased(uint _upc) {\r\n    require(items[_upc].itemState == State.Purchased, \"The item must be with status Purchased\");\r\n    _;\r\n  }\r\n\r\n  // In the constructor set 'owner' to the address that instantiated the contract\r\n  // and set 'sku' to 1\r\n  // and set 'upc' to 1\r\n  constructor() payable {\r\n    owner = msg.sender;\r\n    sku = 1;\r\n    upc = 1;\r\n  }\r\n\r\n  // Define a function 'kill' if required\r\n  // function kill() public {\r\n  //   if (msg.sender == owner) {\r\n  //     selfdestruct(owner);\r\n  //   }\r\n  // }\r\n\r\n  // Verificar se est correto\r\n\r\n  // function kill() public {\r\n  //     if (msg.sender == owner) {\r\n  //         payable(owner).transfer(address(this).balance);\r\n  //     }\r\n  // }\r\n\r\n  // Define a function 'harvestItem' that allows a farmer to mark an item 'Harvested'\r\n  function harvestItem(uint _upc, address _originFarmerID, string memory _originFarmName, string memory _originFarmInformation, string memory _originFarmLatitude, string memory _originFarmLongitude, string memory _productNotes) public \r\n  {\r\n    // Add the new item as part of Harvest\r\n    items[_upc].sku = sku;\r\n    items[_upc].upc = upc;\r\n    items[_upc].ownerID = _originFarmerID;\r\n    items[_upc].originFarmerID = _originFarmerID;\r\n    items[_upc].originFarmName = _originFarmName;\r\n    items[_upc].originFarmInformation = _originFarmInformation;\r\n    items[_upc].originFarmLatitude = _originFarmLatitude;\r\n    items[_upc].originFarmLongitude = _originFarmLongitude;\r\n    items[_upc].productID = _upc + sku;\r\n    items[_upc].productNotes = _productNotes;\r\n    items[_upc].itemState = State.Harvested;\r\n    // Increment sku\r\n    sku = sku + 1;\r\n    // Emit the appropriate event\r\n    emit Harvested(_upc);\r\n  }\r\n\r\n  // Define a function 'processtItem' that allows a farmer to mark an item 'Processed'\r\n  // Call modifier to check if upc has passed previous supply chain stage\r\n  // Call modifier to verify caller of this function\r\n  function processItem(uint _upc) public harvested(_upc) verifyCaller(items[_upc].ownerID) onlyFarmer{\r\n    // Update the appropriate fields\r\n    items[_upc].itemState = State.Processed;\r\n    // Emit the appropriate event\r\n    emit Processed(_upc);\r\n  }\r\n\r\n  // Define a function 'packItem' that allows a farmer to mark an item 'Packed'\r\n  // Call modifier to check if upc has passed previous supply chain stage\r\n  // Call modifier to verify caller of this function\r\n  function packItem(uint _upc) public processed(_upc) verifyCaller(items[_upc].ownerID) onlyFarmer{\r\n    // Update the appropriate fields\r\n    items[_upc].itemState = State.Packed;\r\n    // Emit the appropriate event\r\n    emit Packed(_upc);\r\n    \r\n  }\r\n\r\n  // Define a function 'sellItem' that allows a farmer to mark an item 'ForSale'\r\n  // Call modifier to check if upc has passed previous supply chain stage\r\n  // Call modifier to verify caller of this function\r\n  function sellItem(uint _upc, uint _price) public packed(_upc) verifyCaller(items[_upc].ownerID) onlyFarmer{\r\n    // Update the appropriate fields\r\n    items[_upc].itemState = State.ForSale;\r\n    items[_upc].productPrice = _price;\r\n    // Emit the appropriate event\r\n    emit ForSale(_upc);\r\n  }\r\n\r\n  // Define a function 'buyItem' that allows the disributor to mark an item 'Sold'\r\n  // Use the above defined modifiers to check if the item is available for sale, if the buyer has paid enough, \r\n  // and any excess ether sent is refunded back to the buyer\r\n  // Call modifier to check if upc has passed previous supply chain stage\r\n  // Call modifer to check if buyer has paid enough  \r\n  // Call modifer to send any excess ether back to buyer\r\n  function buyItem(uint _upc) public payable forSale(_upc) paidEnough(items[_upc].productPrice) checkValue(_upc) onlyDistributor{\r\n    // Update the appropriate fields - ownerID, distributorID, itemState\r\n    items[_upc].ownerID = msg.sender;\r\n    items[_upc].distributorID = msg.sender;\r\n    items[_upc].itemState = State.Sold;\r\n    // Transfer money to farmer\r\n    // msg.sender.transfer(items[_upc].productPrice);\r\n    address payable distributorPayable = payable(msg.sender);\r\n    distributorPayable.transfer(items[_upc].productPrice);\r\n    // emit the appropriate event\r\n    emit Sold(_upc);\r\n  }\r\n\r\n  // Define a function 'shipItem' that allows the distributor to mark an item 'Shipped'\r\n  // Use the above modifers to check if the item is sold\r\n  // Call modifier to check if upc has passed previous supply chain stage\r\n  // Call modifier to verify caller of this function\r\n  function shipItem(uint _upc) public sold(_upc) verifyCaller(items[_upc].ownerID) onlyDistributor{\r\n    // Update the appropriate fields\r\n    items[_upc].itemState = State.Shipped;\r\n    // Emit the appropriate event\r\n    emit Shipped(_upc);\r\n  }\r\n\r\n  // Define a function 'receiveItem' that allows the retailer to mark an item 'Received'\r\n  // Use the above modifiers to check if the item is shipped\r\n  // Call modifier to check if upc has passed previous supply chain stage\r\n  // Access Control List enforced by calling Smart Contract / DApp\r\n  function receiveItem(uint _upc) public shipped(_upc) onlyRetailer{\r\n    // Update the appropriate fields - ownerID, retailerID, itemState\r\n    items[_upc].ownerID = msg.sender;\r\n    items[_upc].retailerID = msg.sender;\r\n    items[_upc].itemState = State.Received;\r\n    // Emit the appropriate event\r\n    emit Received(_upc);\r\n  }\r\n\r\n  // Define a function 'purchaseItem' that allows the consumer to mark an item 'Purchased'\r\n  // Use the above modifiers to check if the item is received\r\n  // Call modifier to check if upc has passed previous supply chain stage\r\n  // Access Control List enforced by calling Smart Contract / DApp\r\n  function purchaseItem(uint _upc) public received(_upc) onlyConsumer{\r\n    // Update the appropriate fields - ownerID, consumerID, itemState\r\n    //items[_upc].ownerID = msg.sender;\r\n    //items[_upc].consumerID = msg.sender;\r\n    address payable consumerPayable = payable(msg.sender);\r\n    items[_upc].ownerID = consumerPayable;\r\n    items[_upc].consumerID = consumerPayable;\r\n    items[_upc].itemState = State.Purchased;\r\n    // Emit the appropriate event\r\n    emit Purchased(_upc);\r\n  }\r\n\r\n  // Define a function 'fetchItemBufferOne' that fetches the data\r\n  function fetchItemBufferOne(uint _upc) public view returns \r\n  (\r\n  uint    itemSKU,\r\n  uint    itemUPC,\r\n  address ownerID,\r\n  address originFarmerID,\r\n  string memory originFarmName,\r\n  string memory originFarmInformation,\r\n  string memory originFarmLatitude,\r\n  string memory originFarmLongitude\r\n  ) \r\n  {\r\n  // Assign values to the 8 parameters\r\n  itemSKU = items[_upc].sku;\r\n  itemUPC = items[_upc].upc;\r\n  ownerID = items[_upc].ownerID;\r\n  originFarmerID = items[_upc].originFarmerID;\r\n  originFarmName = items[_upc].originFarmName;\r\n  originFarmInformation = items[_upc].originFarmInformation;\r\n  originFarmLatitude = items[_upc].originFarmLatitude;\r\n  originFarmLongitude = items[_upc].originFarmLongitude;\r\n  }\r\n\r\n  // Define a function 'fetchItemBufferTwo' that fetches the data\r\n  function fetchItemBufferTwo(uint _upc) public view returns \r\n  (\r\n  uint    itemSKU,\r\n  uint    itemUPC,\r\n  uint    productID,\r\n  string memory productNotes,\r\n  uint    productPrice,\r\n  uint    itemState,\r\n  address distributorID,\r\n  address retailerID,\r\n  address consumerID\r\n  ) \r\n  {\r\n  // Assign values to the 9 parameters\r\n  itemSKU = items[_upc].sku;\r\n  itemUPC = items[_upc].upc;\r\n  productID = items[_upc].productID;\r\n  productNotes = items[_upc].productNotes;\r\n  productPrice = items[_upc].productPrice;\r\n  itemState = uint(items[_upc].itemState);\r\n  distributorID = items[_upc].distributorID;\r\n  retailerID = items[_upc].retailerID;\r\n  consumerID = items[_upc].consumerID;\r\n  }\r\n}\r\n",
  "sourcePath": "D:\\Udacity\\Blockchain\\PROJECTS\\newtry2project3\\nd1309-Project-6b-Example-Template\\project-6\\contracts\\coffeebase\\SupplyChain.sol",
  "compiler": {
    "name": "solc",
    "version": "0.8.7+commit.e28d00a7.Emscripten.clang"
  },
  "schemaVersion": "3.4.16",
  "updatedAt": "2024-03-28T19:37:08.588Z",
  "networkType": "ethereum",
  "devdoc": {
    "kind": "dev",
    "methods": {},
    "version": 1
  },
  "userdoc": {
    "kind": "user",
    "methods": {
      "contractOwner()": {
        "notice": "Look up the address of the owner"
      },
      "isOwner()": {
        "notice": "Check if the calling address is the owner of the contract"
      },
      "renounceOwnership()": {
        "notice": "Define a function to renounce ownerhip"
      },
      "transferOwnership(address)": {
        "notice": "Define a public function to transfer ownership"
      }
    },
    "version": 1
  }
}