{
  "contractName": "SupplyChain",
  "abi": [
    {
      "inputs": [],
      "stateMutability": "payable",
      "type": "constructor",
      "payable": true
    },
    {
      "anonymous": false,
      "inputs": [
        {
          "indexed": true,
          "internalType": "address",
          "name": "account",
          "type": "address"
        }
      ],
      "name": "ConsumerAdded",
      "type": "event"
    },
    {
      "anonymous": false,
      "inputs": [
        {
          "indexed": true,
          "internalType": "address",
          "name": "account",
          "type": "address"
        }
      ],
      "name": "ConsumerRemoved",
      "type": "event"
    },
    {
      "anonymous": false,
      "inputs": [
        {
          "indexed": true,
          "internalType": "address",
          "name": "account",
          "type": "address"
        }
      ],
      "name": "DistributorAdded",
      "type": "event"
    },
    {
      "anonymous": false,
      "inputs": [
        {
          "indexed": true,
          "internalType": "address",
          "name": "account",
          "type": "address"
        }
      ],
      "name": "DistributorRemoved",
      "type": "event"
    },
    {
      "anonymous": false,
      "inputs": [
        {
          "indexed": true,
          "internalType": "address",
          "name": "account",
          "type": "address"
        }
      ],
      "name": "FarmerAdded",
      "type": "event"
    },
    {
      "anonymous": false,
      "inputs": [
        {
          "indexed": true,
          "internalType": "address",
          "name": "account",
          "type": "address"
        }
      ],
      "name": "FarmerRemoved",
      "type": "event"
    },
    {
      "anonymous": false,
      "inputs": [
        {
          "indexed": false,
          "internalType": "uint256",
          "name": "upc",
          "type": "uint256"
        }
      ],
      "name": "ForSale",
      "type": "event"
    },
    {
      "anonymous": false,
      "inputs": [
        {
          "indexed": false,
          "internalType": "uint256",
          "name": "upc",
          "type": "uint256"
        }
      ],
      "name": "Harvested",
      "type": "event"
    },
    {
      "anonymous": false,
      "inputs": [
        {
          "indexed": false,
          "internalType": "uint256",
          "name": "upc",
          "type": "uint256"
        }
      ],
      "name": "Packed",
      "type": "event"
    },
    {
      "anonymous": false,
      "inputs": [
        {
          "indexed": false,
          "internalType": "uint256",
          "name": "upc",
          "type": "uint256"
        }
      ],
      "name": "Processed",
      "type": "event"
    },
    {
      "anonymous": false,
      "inputs": [
        {
          "indexed": false,
          "internalType": "uint256",
          "name": "upc",
          "type": "uint256"
        }
      ],
      "name": "Purchased",
      "type": "event"
    },
    {
      "anonymous": false,
      "inputs": [
        {
          "indexed": false,
          "internalType": "uint256",
          "name": "upc",
          "type": "uint256"
        }
      ],
      "name": "Received",
      "type": "event"
    },
    {
      "anonymous": false,
      "inputs": [
        {
          "indexed": true,
          "internalType": "address",
          "name": "account",
          "type": "address"
        }
      ],
      "name": "RetailerAdded",
      "type": "event"
    },
    {
      "anonymous": false,
      "inputs": [
        {
          "indexed": true,
          "internalType": "address",
          "name": "account",
          "type": "address"
        }
      ],
      "name": "RetailerRemoved",
      "type": "event"
    },
    {
      "anonymous": false,
      "inputs": [
        {
          "indexed": false,
          "internalType": "uint256",
          "name": "upc",
          "type": "uint256"
        }
      ],
      "name": "Shipped",
      "type": "event"
    },
    {
      "anonymous": false,
      "inputs": [
        {
          "indexed": false,
          "internalType": "uint256",
          "name": "upc",
          "type": "uint256"
        }
      ],
      "name": "Sold",
      "type": "event"
    },
    {
      "anonymous": false,
      "inputs": [
        {
          "indexed": true,
          "internalType": "address",
          "name": "oldOwner",
          "type": "address"
        },
        {
          "indexed": true,
          "internalType": "address",
          "name": "newOwner",
          "type": "address"
        }
      ],
      "name": "TransferOwnership",
      "type": "event"
    },
    {
      "inputs": [
        {
          "internalType": "address",
          "name": "account",
          "type": "address"
        }
      ],
      "name": "addConsumer",
      "outputs": [],
      "stateMutability": "nonpayable",
      "type": "function"
    },
    {
      "inputs": [
        {
          "internalType": "address",
          "name": "account",
          "type": "address"
        }
      ],
      "name": "addDistributor",
      "outputs": [],
      "stateMutability": "nonpayable",
      "type": "function"
    },
    {
      "inputs": [
        {
          "internalType": "address",
          "name": "account",
          "type": "address"
        }
      ],
      "name": "addFarmer",
      "outputs": [],
      "stateMutability": "nonpayable",
      "type": "function"
    },
    {
      "inputs": [
        {
          "internalType": "address",
          "name": "account",
          "type": "address"
        }
      ],
      "name": "addRetailer",
      "outputs": [],
      "stateMutability": "nonpayable",
      "type": "function"
    },
    {
      "inputs": [],
      "name": "contractOwner",
      "outputs": [
        {
          "internalType": "address",
          "name": "",
          "type": "address"
        }
      ],
      "stateMutability": "view",
      "type": "function",
      "constant": true
    },
    {
      "inputs": [
        {
          "internalType": "address",
          "name": "account",
          "type": "address"
        }
      ],
      "name": "isConsumer",
      "outputs": [
        {
          "internalType": "bool",
          "name": "",
          "type": "bool"
        }
      ],
      "stateMutability": "view",
      "type": "function",
      "constant": true
    },
    {
      "inputs": [
        {
          "internalType": "address",
          "name": "account",
          "type": "address"
        }
      ],
      "name": "isDistributor",
      "outputs": [
        {
          "internalType": "bool",
          "name": "",
          "type": "bool"
        }
      ],
      "stateMutability": "view",
      "type": "function",
      "constant": true
    },
    {
      "inputs": [
        {
          "internalType": "address",
          "name": "account",
          "type": "address"
        }
      ],
      "name": "isFarmer",
      "outputs": [
        {
          "internalType": "bool",
          "name": "",
          "type": "bool"
        }
      ],
      "stateMutability": "view",
      "type": "function",
      "constant": true
    },
    {
      "inputs": [],
      "name": "isOwner",
      "outputs": [
        {
          "internalType": "bool",
          "name": "",
          "type": "bool"
        }
      ],
      "stateMutability": "view",
      "type": "function",
      "constant": true
    },
    {
      "inputs": [
        {
          "internalType": "address",
          "name": "account",
          "type": "address"
        }
      ],
      "name": "isRetailer",
      "outputs": [
        {
          "internalType": "bool",
          "name": "",
          "type": "bool"
        }
      ],
      "stateMutability": "view",
      "type": "function",
      "constant": true
    },
    {
      "inputs": [],
      "name": "renounceConsumer",
      "outputs": [],
      "stateMutability": "nonpayable",
      "type": "function"
    },
    {
      "inputs": [],
      "name": "renounceDistributor",
      "outputs": [],
      "stateMutability": "nonpayable",
      "type": "function"
    },
    {
      "inputs": [],
      "name": "renounceFarmer",
      "outputs": [],
      "stateMutability": "nonpayable",
      "type": "function"
    },
    {
      "inputs": [],
      "name": "renounceOwnership",
      "outputs": [],
      "stateMutability": "nonpayable",
      "type": "function"
    },
    {
      "inputs": [],
      "name": "renounceRetailer",
      "outputs": [],
      "stateMutability": "nonpayable",
      "type": "function"
    },
    {
      "inputs": [
        {
          "internalType": "address",
          "name": "newOwner",
          "type": "address"
        }
      ],
      "name": "transferOwnership",
      "outputs": [],
      "stateMutability": "nonpayable",
      "type": "function"
    },
    {
      "inputs": [
        {
          "internalType": "uint256",
          "name": "_upc",
          "type": "uint256"
        },
        {
          "internalType": "address",
          "name": "_originFarmerID",
          "type": "address"
        },
        {
          "internalType": "string",
          "name": "_originFarmName",
          "type": "string"
        },
        {
          "internalType": "string",
          "name": "_originFarmInformation",
          "type": "string"
        },
        {
          "internalType": "string",
          "name": "_originFarmLatitude",
          "type": "string"
        },
        {
          "internalType": "string",
          "name": "_originFarmLongitude",
          "type": "string"
        },
        {
          "internalType": "string",
          "name": "_productNotes",
          "type": "string"
        }
      ],
      "name": "harvestItem",
      "outputs": [],
      "stateMutability": "nonpayable",
      "type": "function"
    },
    {
      "inputs": [
        {
          "internalType": "uint256",
          "name": "_upc",
          "type": "uint256"
        }
      ],
      "name": "processItem",
      "outputs": [],
      "stateMutability": "nonpayable",
      "type": "function"
    },
    {
      "inputs": [
        {
          "internalType": "uint256",
          "name": "_upc",
          "type": "uint256"
        }
      ],
      "name": "packItem",
      "outputs": [],
      "stateMutability": "nonpayable",
      "type": "function"
    },
    {
      "inputs": [
        {
          "internalType": "uint256",
          "name": "_upc",
          "type": "uint256"
        },
        {
          "internalType": "uint256",
          "name": "_price",
          "type": "uint256"
        }
      ],
      "name": "sellItem",
      "outputs": [],
      "stateMutability": "nonpayable",
      "type": "function"
    },
    {
      "inputs": [
        {
          "internalType": "uint256",
          "name": "_upc",
          "type": "uint256"
        }
      ],
      "name": "buyItem",
      "outputs": [],
      "stateMutability": "payable",
      "type": "function",
      "payable": true
    },
    {
      "inputs": [
        {
          "internalType": "uint256",
          "name": "_upc",
          "type": "uint256"
        }
      ],
      "name": "shipItem",
      "outputs": [],
      "stateMutability": "nonpayable",
      "type": "function"
    },
    {
      "inputs": [
        {
          "internalType": "uint256",
          "name": "_upc",
          "type": "uint256"
        }
      ],
      "name": "receiveItem",
      "outputs": [],
      "stateMutability": "nonpayable",
      "type": "function"
    },
    {
      "inputs": [
        {
          "internalType": "uint256",
          "name": "_upc",
          "type": "uint256"
        }
      ],
      "name": "purchaseItem",
      "outputs": [],
      "stateMutability": "nonpayable",
      "type": "function"
    },
    {
      "inputs": [
        {
          "internalType": "uint256",
          "name": "_upc",
          "type": "uint256"
        }
      ],
      "name": "fetchItemBufferOne",
      "outputs": [
        {
          "internalType": "uint256",
          "name": "itemSKU",
          "type": "uint256"
        },
        {
          "internalType": "uint256",
          "name": "itemUPC",
          "type": "uint256"
        },
        {
          "internalType": "address",
          "name": "ownerID",
          "type": "address"
        },
        {
          "internalType": "address",
          "name": "originFarmerID",
          "type": "address"
        },
        {
          "internalType": "string",
          "name": "originFarmName",
          "type": "string"
        },
        {
          "internalType": "string",
          "name": "originFarmInformation",
          "type": "string"
        },
        {
          "internalType": "string",
          "name": "originFarmLatitude",
          "type": "string"
        },
        {
          "internalType": "string",
          "name": "originFarmLongitude",
          "type": "string"
        }
      ],
      "stateMutability": "view",
      "type": "function",
      "constant": true
    },
    {
      "inputs": [
        {
          "internalType": "uint256",
          "name": "_upc",
          "type": "uint256"
        }
      ],
      "name": "fetchItemBufferTwo",
      "outputs": [
        {
          "internalType": "uint256",
          "name": "itemSKU",
          "type": "uint256"
        },
        {
          "internalType": "uint256",
          "name": "itemUPC",
          "type": "uint256"
        },
        {
          "internalType": "uint256",
          "name": "productID",
          "type": "uint256"
        },
        {
          "internalType": "string",
          "name": "productNotes",
          "type": "string"
        },
        {
          "internalType": "uint256",
          "name": "productPrice",
          "type": "uint256"
        },
        {
          "internalType": "uint256",
          "name": "itemState",
          "type": "uint256"
        },
        {
          "internalType": "address",
          "name": "distributorID",
          "type": "address"
        },
        {
          "internalType": "address",
          "name": "retailerID",
          "type": "address"
        },
        {
          "internalType": "address",
          "name": "consumerID",
          "type": "address"
        }
      ],
      "stateMutability": "view",
      "type": "function",
      "constant": true
    }
  ],
  "bytecode": "0x6080604052336000806101000a81548173ffffffffffffffffffffffffffffffffffffffff021916908373ffffffffffffffffffffffffffffffffffffffff16021790555060008054906101000a900473ffffffffffffffffffffffffffffffffffffffff1673ffffffffffffffffffffffffffffffffffffffff16600073ffffffffffffffffffffffffffffffffffffffff167f5c486528ec3e3f0ea91181cff8116f02bfa350e03b8b6f12e00765adbb5af85c60405160405180910390a3620000d0336200015a60201b60201c565b620000e133620001bb60201b60201c565b620000f2336200021c60201b60201c565b62000103336200027d60201b60201c565b33600560006101000a81548173ffffffffffffffffffffffffffffffffffffffff021916908373ffffffffffffffffffffffffffffffffffffffff1602179055506001600781905550600160068190555062000427565b62000175816001620002de60201b62001b4d1790919060201c565b8073ffffffffffffffffffffffffffffffffffffffff167f2e0ded4123377a3c2bc9a26f1717655a129e2f20752924d42e730ec89c83dbd060405160405180910390a250565b620001d6816002620002de60201b62001b4d1790919060201c565b8073ffffffffffffffffffffffffffffffffffffffff167fddbf200aa634dc3fb81cfd68583dd1040d1c751d335e1d86b631bde3e977fea860405160405180910390a250565b62000237816003620002de60201b62001b4d1790919060201c565b8073ffffffffffffffffffffffffffffffffffffffff167f71ae26cad02663e3d92efd6ec56031a80d74a20c0ab4183faa8bf262261c9baa60405160405180910390a250565b62000298816004620002de60201b62001b4d1790919060201c565b8073ffffffffffffffffffffffffffffffffffffffff167f28b26e7a3d20aedbc5f8f2ebf7da671c0491723a2b78f47a097b0e46dee0714260405160405180910390a250565b600073ffffffffffffffffffffffffffffffffffffffff168173ffffffffffffffffffffffffffffffffffffffff1614156200031957600080fd5b6200032b82826200039460201b60201c565b156200033657600080fd5b60018260000160008373ffffffffffffffffffffffffffffffffffffffff1673ffffffffffffffffffffffffffffffffffffffff16815260200190815260200160002060006101000a81548160ff0219169083151502179055505050565b60008073ffffffffffffffffffffffffffffffffffffffff168273ffffffffffffffffffffffffffffffffffffffff161415620003d057600080fd5b8260000160008373ffffffffffffffffffffffffffffffffffffffff1673ffffffffffffffffffffffffffffffffffffffff16815260200190815260200160002060009054906101000a900460ff16905092915050565b61291580620004376000396000f3fe6080604052600436106101815760003560e01c80638ec4f505116100d1578063ce606ee01161008a578063e7fb74c711610064578063e7fb74c71461053d578063f2fde38b14610559578063f30fc48014610582578063f61c899a146105ab57610181565b8063ce606ee0146104d2578063d38ea5bf146104fd578063db0e6a2f1461052657610181565b80638ec4f505146103b25780638f0c86fa146103db5780638f32d59b14610418578063a26be99914610443578063b94290691461046c578063bdd8a6a8146104a957610181565b806366225ff91161013e57806377c459131161011857806377c45913146102f157806380c3f96d1461033557806380fc0ce41461035e578063834ff7391461037557610181565b806366225ff91461026c578063715018a6146102b15780637250e224146102c857610181565b8063112940f9146101865780632d923561146101af57806349dae766146101d85780635da09b881461020157806361e6982d1461023e578063644241db14610255575b600080fd5b34801561019257600080fd5b506101ad60048036038101906101a8919061223a565b6105d4565b005b3480156101bb57600080fd5b506101d660048036038101906101d191906123c2565b6105f2565b005b3480156101e457600080fd5b506101ff60048036038101906101fa9190612267565b61075f565b005b34801561020d57600080fd5b506102286004803603810190610223919061223a565b6108b0565b6040516102359190612483565b60405180910390f35b34801561024a57600080fd5b506102536108cd565b005b34801561026157600080fd5b5061026a6108d8565b005b34801561027857600080fd5b50610293600480360381019061028e9190612267565b6108e3565b6040516102a899989796959493929190612553565b60405180910390f35b3480156102bd57600080fd5b506102c6610ae7565b005b3480156102d457600080fd5b506102ef60048036038101906102ea919061223a565b610bb6565b005b3480156102fd57600080fd5b5061031860048036038101906103139190612267565b610bd4565b60405161032c9897969594939291906124b9565b60405180910390f35b34801561034157600080fd5b5061035c6004803603810190610357919061223a565b610f13565b005b34801561036a57600080fd5b50610373610f31565b005b34801561038157600080fd5b5061039c6004803603810190610397919061223a565b610f3c565b6040516103a99190612483565b60405180910390f35b3480156103be57600080fd5b506103d960048036038101906103d4919061223a565b610f59565b005b3480156103e757600080fd5b5061040260048036038101906103fd919061223a565b610f77565b60405161040f9190612483565b60405180910390f35b34801561042457600080fd5b5061042d610f94565b60405161043a9190612483565b60405180910390f35b34801561044f57600080fd5b5061046a60048036038101906104659190612267565b610feb565b005b34801561047857600080fd5b50610493600480360381019061048e919061223a565b611176565b6040516104a09190612483565b60405180910390f35b3480156104b557600080fd5b506104d060048036038101906104cb9190612294565b611193565b005b3480156104de57600080fd5b506104e761140a565b6040516104f49190612468565b60405180910390f35b34801561050957600080fd5b50610524600480360381019061051f9190612267565b611433565b005b34801561053257600080fd5b5061053b6115c4565b005b61055760048036038101906105529190612267565b6115cf565b005b34801561056557600080fd5b50610580600480360381019061057b919061223a565b61188e565b005b34801561058e57600080fd5b506105a960048036038101906105a49190612267565b6118ab565b005b3480156105b757600080fd5b506105d260048036038101906105cd9190612267565b6119fc565b005b6105dd33610f3c565b6105e657600080fd5b6105ef81611bf9565b50565b8160026007811115610607576106066127ff565b5b60086000838152602001908152602001600020600b0160009054906101000a900460ff16600781111561063d5761063c6127ff565b5b1461064757600080fd5b6008600084815260200190815260200160002060020160009054906101000a900473ffffffffffffffffffffffffffffffffffffffff168073ffffffffffffffffffffffffffffffffffffffff163373ffffffffffffffffffffffffffffffffffffffff16146106b657600080fd5b6106bf33611176565b6106c857600080fd5b600360086000868152602001908152602001600020600b0160006101000a81548160ff02191690836007811115610702576107016127ff565b5b02179055508260086000868152602001908152602001600020600a01819055507fa96ae0fc3224ebd79eebfe54bd130cc9cb94416cddd1f2386115e00b7253246884604051610751919061249e565b60405180910390a150505050565b8060006007811115610774576107736127ff565b5b60086000838152602001908152602001600020600b0160009054906101000a900460ff1660078111156107aa576107a96127ff565b5b146107b457600080fd5b6008600083815260200190815260200160002060020160009054906101000a900473ffffffffffffffffffffffffffffffffffffffff168073ffffffffffffffffffffffffffffffffffffffff163373ffffffffffffffffffffffffffffffffffffffff161461082357600080fd5b61082c33611176565b61083557600080fd5b600160086000858152602001908152602001600020600b0160006101000a81548160ff0219169083600781111561086f5761086e6127ff565b5b02179055507f5afe3b1bf87069693c075da5c22a98d63d1aef98a30dbbe538d0781a98b77ee5836040516108a3919061249e565b60405180910390a1505050565b60006108c6826003611c5390919063ffffffff16565b9050919050565b6108d633611ce5565b565b6108e133611d3f565b565b600080600060606000806000806000600860008b8152602001908152602001600020600001549850600860008b8152602001908152602001600020600101549750600860008b8152602001908152602001600020600801549650600860008b8152602001908152602001600020600901805461095e9061276d565b80601f016020809104026020016040519081016040528092919081815260200182805461098a9061276d565b80156109d75780601f106109ac576101008083540402835291602001916109d7565b820191906000526020600020905b8154815290600101906020018083116109ba57829003601f168201915b50505050509550600860008b8152602001908152602001600020600a01549450600860008b8152602001908152602001600020600b0160009054906101000a900460ff166007811115610a2d57610a2c6127ff565b5b9350600860008b8152602001908152602001600020600b0160019054906101000a900473ffffffffffffffffffffffffffffffffffffffff169250600860008b8152602001908152602001600020600c0160009054906101000a900473ffffffffffffffffffffffffffffffffffffffff169150600860008b8152602001908152602001600020600d0160009054906101000a900473ffffffffffffffffffffffffffffffffffffffff1690509193959799909294969850565b610aef610f94565b610af857600080fd5b600073ffffffffffffffffffffffffffffffffffffffff1660008054906101000a900473ffffffffffffffffffffffffffffffffffffffff1673ffffffffffffffffffffffffffffffffffffffff167f5c486528ec3e3f0ea91181cff8116f02bfa350e03b8b6f12e00765adbb5af85c60405160405180910390a360008060006101000a81548173ffffffffffffffffffffffffffffffffffffffff021916908373ffffffffffffffffffffffffffffffffffffffff160217905550565b610bbf33610f77565b610bc857600080fd5b610bd181611d99565b50565b600080600080606080606080600860008a8152602001908152602001600020600001549750600860008a8152602001908152602001600020600101549650600860008a815260200190815260200160002060020160009054906101000a900473ffffffffffffffffffffffffffffffffffffffff169550600860008a815260200190815260200160002060030160009054906101000a900473ffffffffffffffffffffffffffffffffffffffff169450600860008a81526020019081526020016000206004018054610ca59061276d565b80601f0160208091040260200160405190810160405280929190818152602001828054610cd19061276d565b8015610d1e5780601f10610cf357610100808354040283529160200191610d1e565b820191906000526020600020905b815481529060010190602001808311610d0157829003601f168201915b50505050509350600860008a81526020019081526020016000206005018054610d469061276d565b80601f0160208091040260200160405190810160405280929190818152602001828054610d729061276d565b8015610dbf5780601f10610d9457610100808354040283529160200191610dbf565b820191906000526020600020905b815481529060010190602001808311610da257829003601f168201915b50505050509250600860008a81526020019081526020016000206006018054610de79061276d565b80601f0160208091040260200160405190810160405280929190818152602001828054610e139061276d565b8015610e605780601f10610e3557610100808354040283529160200191610e60565b820191906000526020600020905b815481529060010190602001808311610e4357829003601f168201915b50505050509150600860008a81526020019081526020016000206007018054610e889061276d565b80601f0160208091040260200160405190810160405280929190818152602001828054610eb49061276d565b8015610f015780601f10610ed657610100808354040283529160200191610f01565b820191906000526020600020905b815481529060010190602001808311610ee457829003601f168201915b50505050509050919395975091939597565b610f1c33611176565b610f2557600080fd5b610f2e81611df3565b50565b610f3a33611e4d565b565b6000610f52826004611c5390919063ffffffff16565b9050919050565b610f62336108b0565b610f6b57600080fd5b610f7481611ea7565b50565b6000610f8d826002611c5390919063ffffffff16565b9050919050565b60008060009054906101000a900473ffffffffffffffffffffffffffffffffffffffff1673ffffffffffffffffffffffffffffffffffffffff163373ffffffffffffffffffffffffffffffffffffffff1614905090565b806005600781111561100057610fff6127ff565b5b60086000838152602001908152602001600020600b0160009054906101000a900460ff166007811115611036576110356127ff565b5b1461104057600080fd5b611049336108b0565b61105257600080fd5b336008600084815260200190815260200160002060020160006101000a81548173ffffffffffffffffffffffffffffffffffffffff021916908373ffffffffffffffffffffffffffffffffffffffff1602179055503360086000848152602001908152602001600020600c0160006101000a81548173ffffffffffffffffffffffffffffffffffffffff021916908373ffffffffffffffffffffffffffffffffffffffff160217905550600660086000848152602001908152602001600020600b0160006101000a81548160ff02191690836007811115611136576111356127ff565b5b02179055507fa8142743f8f70a4c26f3691cf4ed59718381fb2f18070ec52be1f1022d8555578260405161116a919061249e565b60405180910390a15050565b600061118c826001611c5390919063ffffffff16565b9050919050565b60075460086000898152602001908152602001600020600001819055506006546008600089815260200190815260200160002060010181905550856008600089815260200190815260200160002060020160006101000a81548173ffffffffffffffffffffffffffffffffffffffff021916908373ffffffffffffffffffffffffffffffffffffffff160217905550856008600089815260200190815260200160002060030160006101000a81548173ffffffffffffffffffffffffffffffffffffffff021916908373ffffffffffffffffffffffffffffffffffffffff160217905550846008600089815260200190815260200160002060040190805190602001906112a19291906120fd565b50836008600089815260200190815260200160002060050190805190602001906112cc9291906120fd565b50826008600089815260200190815260200160002060060190805190602001906112f79291906120fd565b50816008600089815260200190815260200160002060070190805190602001906113229291906120fd565b50600754876113319190612659565b6008600089815260200190815260200160002060080181905550806008600089815260200190815260200160002060090190805190602001906113759291906120fd565b50600060086000898152602001908152602001600020600b0160006101000a81548160ff021916908360078111156113b0576113af6127ff565b5b021790555060016007546113c49190612659565b6007819055507f8e55ccfc9778ff8eba1646d765cf1982537ce0f9257054a17b48aad745250183876040516113f9919061249e565b60405180910390a150505050505050565b60008060009054906101000a900473ffffffffffffffffffffffffffffffffffffffff16905090565b8060066007811115611448576114476127ff565b5b60086000838152602001908152602001600020600b0160009054906101000a900460ff16600781111561147e5761147d6127ff565b5b1461148857600080fd5b61149133610f3c565b61149a57600080fd5b6000339050806008600085815260200190815260200160002060020160006101000a81548173ffffffffffffffffffffffffffffffffffffffff021916908373ffffffffffffffffffffffffffffffffffffffff1602179055508060086000858152602001908152602001600020600d0160006101000a81548173ffffffffffffffffffffffffffffffffffffffff021916908373ffffffffffffffffffffffffffffffffffffffff160217905550600760086000858152602001908152602001600020600b0160006101000a81548160ff02191690836007811115611583576115826127ff565b5b02179055507f653d56639fee6b566a5c804764e9689de38645f0b733df89a36a1b7b42173dd8836040516115b7919061249e565b60405180910390a1505050565b6115cd33611f01565b565b80600360078111156115e4576115e36127ff565b5b60086000838152602001908152602001600020600b0160009054906101000a900460ff16600781111561161a576116196127ff565b5b1461162457600080fd5b60086000838152602001908152602001600020600a01548034101561164857600080fd5b8261165233610f77565b61165b57600080fd5b336008600086815260200190815260200160002060020160006101000a81548173ffffffffffffffffffffffffffffffffffffffff021916908373ffffffffffffffffffffffffffffffffffffffff1602179055503360086000868152602001908152602001600020600b0160016101000a81548173ffffffffffffffffffffffffffffffffffffffff021916908373ffffffffffffffffffffffffffffffffffffffff160217905550600460086000868152602001908152602001600020600b0160006101000a81548160ff0219169083600781111561173f5761173e6127ff565b5b021790555060003390508073ffffffffffffffffffffffffffffffffffffffff166108fc60086000888152602001908152602001600020600a01549081150290604051600060405180830381858888f193505050501580156117a5573d6000803e3d6000fd5b507f92f64ca637d023f354075a4be751b169c1a8a9ccb6d33cdd0cb3520543995727856040516117d5919061249e565b60405180910390a150600060086000838152602001908152602001600020600a015490506000813461180791906126af565b905060086000848152602001908152602001600020600d0160009054906101000a900473ffffffffffffffffffffffffffffffffffffffff1673ffffffffffffffffffffffffffffffffffffffff166108fc829081150290604051600060405180830381858888f19350505050158015611885573d6000803e3d6000fd5b50505050505050565b611896610f94565b61189f57600080fd5b6118a881611f5b565b50565b80600160078111156118c0576118bf6127ff565b5b60086000838152602001908152602001600020600b0160009054906101000a900460ff1660078111156118f6576118f56127ff565b5b1461190057600080fd5b6008600083815260200190815260200160002060020160009054906101000a900473ffffffffffffffffffffffffffffffffffffffff168073ffffffffffffffffffffffffffffffffffffffff163373ffffffffffffffffffffffffffffffffffffffff161461196f57600080fd5b61197833611176565b61198157600080fd5b600260086000858152602001908152602001600020600b0160006101000a81548160ff021916908360078111156119bb576119ba6127ff565b5b02179055507f9b3b66e2380b690bae22c73ef1428fb0c91e72fe14a4b6defa13035214187aff836040516119ef919061249e565b60405180910390a1505050565b8060046007811115611a1157611a106127ff565b5b60086000838152602001908152602001600020600b0160009054906101000a900460ff166007811115611a4757611a466127ff565b5b14611a5157600080fd5b6008600083815260200190815260200160002060020160009054906101000a900473ffffffffffffffffffffffffffffffffffffffff168073ffffffffffffffffffffffffffffffffffffffff163373ffffffffffffffffffffffffffffffffffffffff1614611ac057600080fd5b611ac933610f77565b611ad257600080fd5b600560086000858152602001908152602001600020600b0160006101000a81548160ff02191690836007811115611b0c57611b0b6127ff565b5b02179055507ff00b9a5725b80c54016f42114f6ed7792d22eecb116011c4afac29c57bef6c9583604051611b40919061249e565b60405180910390a1505050565b600073ffffffffffffffffffffffffffffffffffffffff168173ffffffffffffffffffffffffffffffffffffffff161415611b8757600080fd5b611b918282611c53565b15611b9b57600080fd5b60018260000160008373ffffffffffffffffffffffffffffffffffffffff1673ffffffffffffffffffffffffffffffffffffffff16815260200190815260200160002060006101000a81548160ff0219169083151502179055505050565b611c0d816004611b4d90919063ffffffff16565b8073ffffffffffffffffffffffffffffffffffffffff167f28b26e7a3d20aedbc5f8f2ebf7da671c0491723a2b78f47a097b0e46dee0714260405160405180910390a250565b60008073ffffffffffffffffffffffffffffffffffffffff168273ffffffffffffffffffffffffffffffffffffffff161415611c8e57600080fd5b8260000160008373ffffffffffffffffffffffffffffffffffffffff1673ffffffffffffffffffffffffffffffffffffffff16815260200190815260200160002060009054906101000a900460ff16905092915050565b611cf981600461205290919063ffffffff16565b8073ffffffffffffffffffffffffffffffffffffffff167fe3f5ed5f263f1f01764a96edfc7d025f511ec5f7d180e8816908b78bcf74f09860405160405180910390a250565b611d5381600261205290919063ffffffff16565b8073ffffffffffffffffffffffffffffffffffffffff167f126174f6cf49c81cdb4a9214c6b8f037bef55b4ec31e4fc776cea2a1c8a88d5960405160405180910390a250565b611dad816002611b4d90919063ffffffff16565b8073ffffffffffffffffffffffffffffffffffffffff167fddbf200aa634dc3fb81cfd68583dd1040d1c751d335e1d86b631bde3e977fea860405160405180910390a250565b611e07816001611b4d90919063ffffffff16565b8073ffffffffffffffffffffffffffffffffffffffff167f2e0ded4123377a3c2bc9a26f1717655a129e2f20752924d42e730ec89c83dbd060405160405180910390a250565b611e6181600161205290919063ffffffff16565b8073ffffffffffffffffffffffffffffffffffffffff167fa5e0f060af304ab17dd418c7927e3da3ae7868189bf387aee09ab179ccc572f260405160405180910390a250565b611ebb816003611b4d90919063ffffffff16565b8073ffffffffffffffffffffffffffffffffffffffff167f71ae26cad02663e3d92efd6ec56031a80d74a20c0ab4183faa8bf262261c9baa60405160405180910390a250565b611f1581600361205290919063ffffffff16565b8073ffffffffffffffffffffffffffffffffffffffff167fdb7176e79cffef81cb01767dd0447a0b24bb72ca9778d4b245581086b2a7e6db60405160405180910390a250565b600073ffffffffffffffffffffffffffffffffffffffff168173ffffffffffffffffffffffffffffffffffffffff161415611f9557600080fd5b8073ffffffffffffffffffffffffffffffffffffffff1660008054906101000a900473ffffffffffffffffffffffffffffffffffffffff1673ffffffffffffffffffffffffffffffffffffffff167f5c486528ec3e3f0ea91181cff8116f02bfa350e03b8b6f12e00765adbb5af85c60405160405180910390a3806000806101000a81548173ffffffffffffffffffffffffffffffffffffffff021916908373ffffffffffffffffffffffffffffffffffffffff16021790555050565b600073ffffffffffffffffffffffffffffffffffffffff168173ffffffffffffffffffffffffffffffffffffffff16141561208c57600080fd5b6120968282611c53565b61209f57600080fd5b60008260000160008373ffffffffffffffffffffffffffffffffffffffff1673ffffffffffffffffffffffffffffffffffffffff16815260200190815260200160002060006101000a81548160ff0219169083151502179055505050565b8280546121099061276d565b90600052602060002090601f01602090048101928261212b5760008555612172565b82601f1061214457805160ff1916838001178555612172565b82800160010185558215612172579182015b82811115612171578251825591602001919060010190612156565b5b50905061217f9190612183565b5090565b5b8082111561219c576000816000905550600101612184565b5090565b60006121b36121ae8461260c565b6125e7565b9050828152602081018484840111156121cf576121ce612891565b5b6121da84828561272b565b509392505050565b6000813590506121f1816128b1565b92915050565b600082601f83011261220c5761220b61288c565b5b813561221c8482602086016121a0565b91505092915050565b600081359050612234816128c8565b92915050565b6000602082840312156122505761224f61289b565b5b600061225e848285016121e2565b91505092915050565b60006020828403121561227d5761227c61289b565b5b600061228b84828501612225565b91505092915050565b600080600080600080600060e0888a0312156122b3576122b261289b565b5b60006122c18a828b01612225565b97505060206122d28a828b016121e2565b965050604088013567ffffffffffffffff8111156122f3576122f2612896565b5b6122ff8a828b016121f7565b955050606088013567ffffffffffffffff8111156123205761231f612896565b5b61232c8a828b016121f7565b945050608088013567ffffffffffffffff81111561234d5761234c612896565b5b6123598a828b016121f7565b93505060a088013567ffffffffffffffff81111561237a57612379612896565b5b6123868a828b016121f7565b92505060c088013567ffffffffffffffff8111156123a7576123a6612896565b5b6123b38a828b016121f7565b91505092959891949750929550565b600080604083850312156123d9576123d861289b565b5b60006123e785828601612225565b92505060206123f885828601612225565b9150509250929050565b61240b816126e3565b82525050565b61241a816126f5565b82525050565b600061242b8261263d565b6124358185612648565b935061244581856020860161273a565b61244e816128a0565b840191505092915050565b61246281612721565b82525050565b600060208201905061247d6000830184612402565b92915050565b60006020820190506124986000830184612411565b92915050565b60006020820190506124b36000830184612459565b92915050565b6000610100820190506124cf600083018b612459565b6124dc602083018a612459565b6124e96040830189612402565b6124f66060830188612402565b81810360808301526125088187612420565b905081810360a083015261251c8186612420565b905081810360c08301526125308185612420565b905081810360e08301526125448184612420565b90509998505050505050505050565b600061012082019050612569600083018c612459565b612576602083018b612459565b612583604083018a612459565b81810360608301526125958189612420565b90506125a46080830188612459565b6125b160a0830187612459565b6125be60c0830186612402565b6125cb60e0830185612402565b6125d9610100830184612402565b9a9950505050505050505050565b60006125f1612602565b90506125fd828261279f565b919050565b6000604051905090565b600067ffffffffffffffff8211156126275761262661285d565b5b612630826128a0565b9050602081019050919050565b600081519050919050565b600082825260208201905092915050565b600061266482612721565b915061266f83612721565b9250827fffffffffffffffffffffffffffffffffffffffffffffffffffffffffffffffff038211156126a4576126a36127d0565b5b828201905092915050565b60006126ba82612721565b91506126c583612721565b9250828210156126d8576126d76127d0565b5b828203905092915050565b60006126ee82612701565b9050919050565b60008115159050919050565b600073ffffffffffffffffffffffffffffffffffffffff82169050919050565b6000819050919050565b82818337600083830152505050565b60005b8381101561275857808201518184015260208101905061273d565b83811115612767576000848401525b50505050565b6000600282049050600182168061278557607f821691505b602082108114156127995761279861282e565b5b50919050565b6127a8826128a0565b810181811067ffffffffffffffff821117156127c7576127c661285d565b5b80604052505050565b7f4e487b7100000000000000000000000000000000000000000000000000000000600052601160045260246000fd5b7f4e487b7100000000000000000000000000000000000000000000000000000000600052602160045260246000fd5b7f4e487b7100000000000000000000000000000000000000000000000000000000600052602260045260246000fd5b7f4e487b7100000000000000000000000000000000000000000000000000000000600052604160045260246000fd5b600080fd5b600080fd5b600080fd5b600080fd5b6000601f19601f8301169050919050565b6128ba816126e3565b81146128c557600080fd5b50565b6128d181612721565b81146128dc57600080fd5b5056fea2646970667358221220e3bc544dd652e4e9e2f7954c633cbbfb19d87ee70336b75bef9eb70486ef6c9364736f6c63430008070033",
  "immutableReferences": {},
  "source": "// SPDX-License-Identifier: MIT\r\npragma solidity >=0.4.24;\r\n\r\nimport \"../coffeeaccesscontrol/FarmerRole.sol\";\r\nimport \"../coffeeaccesscontrol/DistributorRole.sol\";\r\nimport \"../coffeeaccesscontrol/RetailerRole.sol\";\r\nimport \"../coffeeaccesscontrol/ConsumerRole.sol\";\r\nimport \"../coffeecore/Ownable.sol\";\r\n\r\n// Define a contract 'Supplychain'\r\ncontract SupplyChain is Ownable, FarmerRole, DistributorRole, RetailerRole, ConsumerRole{\r\n\r\n  // Define 'owner'\r\n  address owner;\r\n\r\n  // Define a variable called 'upc' for Universal Product Code (UPC)\r\n  uint  upc;\r\n\r\n  // Define a variable called 'sku' for Stock Keeping Unit (SKU)\r\n  uint  sku;\r\n\r\n  // Define a public mapping 'items' that maps the UPC to an Item.\r\n  mapping (uint => Item) items;\r\n\r\n  // Define a public mapping 'itemsHistory' that maps the UPC to an array of TxHash, \r\n  // that track its journey through the supply chain -- to be sent from DApp.\r\n  mapping (uint => string[]) itemsHistory;\r\n  \r\n  // Define enum 'State' with the following values:\r\n  enum State \r\n  { \r\n    Harvested,  // 0\r\n    Processed,  // 1\r\n    Packed,     // 2\r\n    ForSale,    // 3\r\n    Sold,       // 4\r\n    Shipped,    // 5\r\n    Received,   // 6\r\n    Purchased   // 7\r\n    }\r\n\r\n  State constant defaultState = State.Harvested;\r\n\r\n  // Define a struct 'Item' with the following fields:\r\n  struct Item {\r\n    uint    sku;  // Stock Keeping Unit (SKU)\r\n    uint    upc; // Universal Product Code (UPC), generated by the Farmer, goes on the package, can be verified by the Consumer\r\n    address ownerID;  // Metamask-Ethereum address of the current owner as the product moves through 8 stages\r\n    address originFarmerID; // Metamask-Ethereum address of the Farmer\r\n    string  originFarmName; // Farmer Name\r\n    string  originFarmInformation;  // Farmer Information\r\n    string  originFarmLatitude; // Farm Latitude\r\n    string  originFarmLongitude;  // Farm Longitude\r\n    uint    productID;  // Product ID potentially a combination of upc + sku\r\n    string  productNotes; // Product Notes\r\n    uint    productPrice; // Product Price\r\n    State   itemState;  // Product State as represented in the enum above\r\n    address distributorID;  // Metamask-Ethereum address of the Distributor\r\n    address retailerID; // Metamask-Ethereum address of the Retailer\r\n    address payable consumerID; // Metamask-Ethereum address of the Consumer\r\n  }\r\n\r\n  // Define 8 events with the same 8 state values and accept 'upc' as input argument\r\n  event Harvested(uint upc);\r\n  event Processed(uint upc);\r\n  event Packed(uint upc);\r\n  event ForSale(uint upc);\r\n  event Sold(uint upc);\r\n  event Shipped(uint upc);\r\n  event Received(uint upc);\r\n  event Purchased(uint upc);\r\n\r\n  // Define a modifer that checks to see if msg.sender == owner of the contract\r\n  // modifier onlyOwner() {\r\n  //   require(msg.sender == owner);\r\n  //   _;\r\n  // }\r\n\r\n  // Define a modifer that verifies the Caller\r\n  modifier verifyCaller (address _address) {\r\n    require(msg.sender == _address); \r\n    _;\r\n  }\r\n\r\n  // Define a modifier that checks if the paid amount is sufficient to cover the price\r\n  modifier paidEnough(uint _price) { \r\n    require(msg.value >= _price); \r\n    _;\r\n  }\r\n  \r\n  // Define a modifier that checks the price and refunds the remaining balance\r\n  modifier checkValue(uint _upc) {\r\n    _;\r\n    uint _price = items[_upc].productPrice;\r\n    uint amountToReturn = msg.value - _price;\r\n    items[_upc].consumerID.transfer(amountToReturn);\r\n  }\r\n\r\n  // Define a modifier that checks if an item.state of a upc is Harvested\r\n  modifier harvested(uint _upc) {\r\n    require(items[_upc].itemState == State.Harvested);\r\n    _;\r\n  }\r\n\r\n  // Define a modifier that checks if an item.state of a upc is Processed\r\n  modifier processed(uint _upc) {\r\n    require(items[_upc].itemState == State.Processed);\r\n    _;\r\n  }\r\n  \r\n  // Define a modifier that checks if an item.state of a upc is Packed\r\n  modifier packed(uint _upc) {\r\n    require(items[_upc].itemState == State.Packed);\r\n    _;\r\n  }\r\n\r\n  // Define a modifier that checks if an item.state of a upc is ForSale\r\n  modifier forSale(uint _upc) {\r\n    require(items[_upc].itemState == State.ForSale);\r\n    _;\r\n  }\r\n\r\n  // Define a modifier that checks if an item.state of a upc is Sold\r\n  modifier sold(uint _upc) {\r\n    require(items[_upc].itemState == State.Sold);\r\n    _;\r\n  }\r\n  \r\n  // Define a modifier that checks if an item.state of a upc is Shipped\r\n  modifier shipped(uint _upc) {\r\n    require(items[_upc].itemState == State.Shipped);\r\n    _;\r\n  }\r\n\r\n  // Define a modifier that checks if an item.state of a upc is Received\r\n  modifier received(uint _upc) {\r\n    require(items[_upc].itemState == State.Received);\r\n    _;\r\n  }\r\n\r\n  // Define a modifier that checks if an item.state of a upc is Purchased\r\n  modifier purchased(uint _upc) {\r\n    require(items[_upc].itemState == State.Purchased);\r\n    _;\r\n  }\r\n\r\n  // In the constructor set 'owner' to the address that instantiated the contract\r\n  // and set 'sku' to 1\r\n  // and set 'upc' to 1\r\n  constructor() payable {\r\n    owner = msg.sender;\r\n    sku = 1;\r\n    upc = 1;\r\n  }\r\n\r\n  // Define a function 'kill' if required\r\n  // function kill() public {\r\n  //   if (msg.sender == owner) {\r\n  //     selfdestruct(owner);\r\n  //   }\r\n  // }\r\n\r\n  // Verificar se est correto\r\n\r\n  // function kill() public {\r\n  //     if (msg.sender == owner) {\r\n  //         payable(owner).transfer(address(this).balance);\r\n  //     }\r\n  // }\r\n\r\n  // Define a function 'harvestItem' that allows a farmer to mark an item 'Harvested'\r\n  function harvestItem(uint _upc, address _originFarmerID, string memory _originFarmName, string memory _originFarmInformation, string memory _originFarmLatitude, string memory _originFarmLongitude, string memory _productNotes) public \r\n  {\r\n    // Add the new item as part of Harvest\r\n    items[_upc].sku = sku;\r\n    items[_upc].upc = upc;\r\n    items[_upc].ownerID = _originFarmerID;\r\n    items[_upc].originFarmerID = _originFarmerID;\r\n    items[_upc].originFarmName = _originFarmName;\r\n    items[_upc].originFarmInformation = _originFarmInformation;\r\n    items[_upc].originFarmLatitude = _originFarmLatitude;\r\n    items[_upc].originFarmLongitude = _originFarmLongitude;\r\n    items[_upc].productID = _upc + sku;\r\n    items[_upc].productNotes = _productNotes;\r\n    items[_upc].itemState = State.Harvested;\r\n    // Increment sku\r\n    sku = sku + 1;\r\n    // Emit the appropriate event\r\n    emit Harvested(_upc);\r\n  }\r\n\r\n  // Define a function 'processtItem' that allows a farmer to mark an item 'Processed'\r\n  // Call modifier to check if upc has passed previous supply chain stage\r\n  // Call modifier to verify caller of this function\r\n  function processItem(uint _upc) public harvested(_upc) verifyCaller(items[_upc].ownerID) onlyFarmer{\r\n    // Update the appropriate fields\r\n    items[_upc].itemState = State.Processed;\r\n    // Emit the appropriate event\r\n    emit Processed(_upc);\r\n  }\r\n\r\n  // Define a function 'packItem' that allows a farmer to mark an item 'Packed'\r\n  // Call modifier to check if upc has passed previous supply chain stage\r\n  // Call modifier to verify caller of this function\r\n  function packItem(uint _upc) public processed(_upc) verifyCaller(items[_upc].ownerID) onlyFarmer{\r\n    // Update the appropriate fields\r\n    items[_upc].itemState = State.Packed;\r\n    // Emit the appropriate event\r\n    emit Packed(_upc);\r\n    \r\n  }\r\n\r\n  // Define a function 'sellItem' that allows a farmer to mark an item 'ForSale'\r\n  // Call modifier to check if upc has passed previous supply chain stage\r\n  // Call modifier to verify caller of this function\r\n  function sellItem(uint _upc, uint _price) public packed(_upc) verifyCaller(items[_upc].ownerID) onlyFarmer{\r\n    // Update the appropriate fields\r\n    items[_upc].itemState = State.ForSale;\r\n    items[_upc].productPrice = _price;\r\n    // Emit the appropriate event\r\n    emit ForSale(_upc);\r\n  }\r\n\r\n  // Define a function 'buyItem' that allows the disributor to mark an item 'Sold'\r\n  // Use the above defined modifiers to check if the item is available for sale, if the buyer has paid enough, \r\n  // and any excess ether sent is refunded back to the buyer\r\n  // Call modifier to check if upc has passed previous supply chain stage\r\n  // Call modifer to check if buyer has paid enough  \r\n  // Call modifer to send any excess ether back to buyer\r\n  function buyItem(uint _upc) public payable forSale(_upc) paidEnough(items[_upc].productPrice) checkValue(_upc) onlyDistributor{\r\n    // Update the appropriate fields - ownerID, distributorID, itemState\r\n    items[_upc].ownerID = msg.sender;\r\n    items[_upc].distributorID = msg.sender;\r\n    items[_upc].itemState = State.Sold;\r\n    // Transfer money to farmer\r\n    // msg.sender.transfer(items[_upc].productPrice);\r\n    address payable distributorPayable = payable(msg.sender);\r\n    distributorPayable.transfer(items[_upc].productPrice);\r\n    // emit the appropriate event\r\n    emit Sold(_upc);\r\n  }\r\n\r\n  // Define a function 'shipItem' that allows the distributor to mark an item 'Shipped'\r\n  // Use the above modifers to check if the item is sold\r\n  // Call modifier to check if upc has passed previous supply chain stage\r\n  // Call modifier to verify caller of this function\r\n  function shipItem(uint _upc) public sold(_upc) verifyCaller(items[_upc].ownerID) onlyDistributor{\r\n    // Update the appropriate fields\r\n    items[_upc].itemState = State.Shipped;\r\n    // Emit the appropriate event\r\n    emit Shipped(_upc);\r\n  }\r\n\r\n  // Define a function 'receiveItem' that allows the retailer to mark an item 'Received'\r\n  // Use the above modifiers to check if the item is shipped\r\n  // Call modifier to check if upc has passed previous supply chain stage\r\n  // Access Control List enforced by calling Smart Contract / DApp\r\n  function receiveItem(uint _upc) public shipped(_upc) onlyRetailer{\r\n    // Update the appropriate fields - ownerID, retailerID, itemState\r\n    items[_upc].ownerID = msg.sender;\r\n    items[_upc].retailerID = msg.sender;\r\n    items[_upc].itemState = State.Received;\r\n    // Emit the appropriate event\r\n    emit Received(_upc);\r\n  }\r\n\r\n  // Define a function 'purchaseItem' that allows the consumer to mark an item 'Purchased'\r\n  // Use the above modifiers to check if the item is received\r\n  // Call modifier to check if upc has passed previous supply chain stage\r\n  // Access Control List enforced by calling Smart Contract / DApp\r\n  function purchaseItem(uint _upc) public received(_upc) onlyConsumer{\r\n    // Update the appropriate fields - ownerID, consumerID, itemState\r\n    //items[_upc].ownerID = msg.sender;\r\n    //items[_upc].consumerID = msg.sender;\r\n    address payable consumerPayable = payable(msg.sender);\r\n    items[_upc].ownerID = consumerPayable;\r\n    items[_upc].consumerID = consumerPayable;\r\n    items[_upc].itemState = State.Purchased;\r\n    // Emit the appropriate event\r\n    emit Purchased(_upc);\r\n  }\r\n\r\n  // Define a function 'fetchItemBufferOne' that fetches the data\r\n  function fetchItemBufferOne(uint _upc) public view returns \r\n  (\r\n  uint    itemSKU,\r\n  uint    itemUPC,\r\n  address ownerID,\r\n  address originFarmerID,\r\n  string memory originFarmName,\r\n  string memory originFarmInformation,\r\n  string memory originFarmLatitude,\r\n  string memory originFarmLongitude\r\n  ) \r\n  {\r\n  // Assign values to the 8 parameters\r\n  itemSKU = items[_upc].sku;\r\n  itemUPC = items[_upc].upc;\r\n  ownerID = items[_upc].ownerID;\r\n  originFarmerID = items[_upc].originFarmerID;\r\n  originFarmName = items[_upc].originFarmName;\r\n  originFarmInformation = items[_upc].originFarmInformation;\r\n  originFarmLatitude = items[_upc].originFarmLatitude;\r\n  originFarmLongitude = items[_upc].originFarmLongitude;\r\n  }\r\n\r\n  // Define a function 'fetchItemBufferTwo' that fetches the data\r\n  function fetchItemBufferTwo(uint _upc) public view returns \r\n  (\r\n  uint    itemSKU,\r\n  uint    itemUPC,\r\n  uint    productID,\r\n  string memory productNotes,\r\n  uint    productPrice,\r\n  uint    itemState,\r\n  address distributorID,\r\n  address retailerID,\r\n  address consumerID\r\n  ) \r\n  {\r\n  // Assign values to the 9 parameters\r\n  itemSKU = items[_upc].sku;\r\n  itemUPC = items[_upc].upc;\r\n  productID = items[_upc].productID;\r\n  productNotes = items[_upc].productNotes;\r\n  productPrice = items[_upc].productPrice;\r\n  itemState = uint(items[_upc].itemState);\r\n  distributorID = items[_upc].distributorID;\r\n  retailerID = items[_upc].retailerID;\r\n  consumerID = items[_upc].consumerID;\r\n  }\r\n}\r\n",
  "sourcePath": "D:\\Udacity\\Blockchain\\NovoTesteProjeto3\\nd1309-Project-6b-Example-Template\\project-6\\contracts\\coffeebase\\SupplyChain.sol",
  "compiler": {
    "name": "solc",
    "version": "0.8.7+commit.e28d00a7.Emscripten.clang"
  },
  "schemaVersion": "3.4.16",
  "updatedAt": "2024-02-26T16:26:06.046Z",
  "networkType": "ethereum",
  "devdoc": {
    "kind": "dev",
    "methods": {},
    "version": 1
  },
  "userdoc": {
    "kind": "user",
    "methods": {
      "contractOwner()": {
        "notice": "Look up the address of the owner"
      },
      "isOwner()": {
        "notice": "Check if the calling address is the owner of the contract"
      },
      "renounceOwnership()": {
        "notice": "Define a function to renounce ownerhip"
      },
      "transferOwnership(address)": {
        "notice": "Define a public function to transfer ownership"
      }
    },
    "version": 1
  }
}